S0150000576973756E5F4E6F64655F4170702E73333764
S3150800000000100020ABEA0708B7EA0708B7EA0708AE
S31508000010B7EA0708B7EA0708B7EA0708B7EA070812
S31508000020B7EA0708B7EA0708B7EA0708B7EA070802
S31508000030B7EA0708B7EA0708A7960308B7EA07085A
S31508000040B7EA0708B7EA0708B7EA0708B7EA0708E2
S31508000050B7EA0708B7EA0708B7EA0708B7EA0708D2
S31508000060B7EA070881160108CB160108B7EA070898
S31508000070B7EA0708B7EA0708B7EA0708B7EA0708B2
S31508000080B7EA0708B7EA0708B7EA0708B7EA0708A2
S31508000090B7EA0708B7EA0708B7EA0708B7EA070892
S315080000A0B7EA0708B7EA0708B7EA0708B7EA070882
S315080000B0B7EA0708B7EA070877580308EB5F0308A3
S315080000C0BB5F0308B95F030869590308E95F0308BA
S315080000D0BD5F0308C15F0308BF5F030871600308BB
S315080000E02D600308B7EA0708B7EA0708B7EA07085A
S315080000F0B7EA0708B7EA0708B7EA0708B7EA070832
S31508000100B7EA0708B7EA0708B7EA0708B7EA070821
S31508000110B7EA0708B7EA0708B7EA0708B7EA070811
S31508000120B7EA0708B7EA0708B7EA0708B7EA070801
S31508000130B7EA0708B7EA0708B7EA0708B7EA0708F1
S31508000140B7EA0708B7EA0708B7EA0708B58D040843
S31508000150B7EA0708B7EA0708E102020801870308B1
S31508000160B7EA0708B7EA0708A5E00708A9E00708F5
S31508000170B7EA0708B7EA0708B7EA07080000000061
S31508000180000000000000F03F0000000000002440CE
S3150800019000000000000059400000000000408F40A9
S315080001A0000000000088C34000000000006AF84014
S315080001B00000000080842E4100000000D012634138
S315080001C00000000084D797410000000065CDCD41AE
S315080001D0696E65745F6E746F700000004572726FA9
S315080001E0723A204661696C656420746F206765748D
S315080001F0204D414320616464726573730A000000F0
S315080002005B496E76616C696420495020616464724A
S315080002106573733A2025735D0A0000004661696CB0
S31508000220656420746F20696E697469616C697A65A2
S31508000230205241494C0A0000000100100001001F2D
S31508000240601DA109060760857405080101BE100432
S315080002500E01000000065F1F0400621E5DFFFF001E
S31508000260000100010010002B6129A109060760851D
S315080002707405080101A203020100A305A1030201F6
S3150800028000BE10040E0800065F1F040000001003DD
S3150800029040000700000100100001000DC001C10068
S315080002A0010000600100FF02000000005B45727259
S315080002B06F723A204D656D6F727920616C6C6F6351
S315080002C06174696F6E206661696C656420666F7219
S315080002D0207061636B65745D0A00000057692D53D1
S315080002E0554E2055445020436C69656E7420417004
S315080002F0706C69636174696F6E0000004170704DBF
S3150800030061696E006170705F7468725F696420214C
S315080003103D203000443A5C496E6573685F776973BF
S31508000320756E5C576973756E5F4E6F64655F417075
S315080003307020315C576973756E5F4E6F64655F41F7
S3150800034070705C6170705F696E69742E630000007E
S31508000350554450526573706F6E7365007564705FAF
S315080003607468725F696420213D203000FC02000831
S31508000370000000000000000000000000000000006F
S315080003800004000018000000000000000000000043
S3150800039050030008000000000000000000000000F4
S315080003A00000000000100000190000000000000016
S315080003B000000000436F6D70696C65722028494122
S315080003C05229000046756C6C2076657273696F6EEB
S315080003D03A206D616A6F72202A2031303030303011
S315080003E030202B206D696E6F72202A203130303014
S315080003F0202B207061746368000000004D696372E9
S3150800040069756D204F53206B65726E656C00000030
S3150800041046756C6C2076657273696F6E3A206D61ED
S315080004206A6F72202A203130303030202B206D69D7
S315080004306E6F72202A20313030202B207061746351
S315080004406800000057692D53554E00006D626564BB
S3150800045020544C53000000004D62656420544C53F0
S3150800046020332E352E3000004170700025733A2057
S31508000470000000002E256C7500000000256C750A2A
S31508000480000000004145532D3132382D45434200C6
S315080004904145532D3139322D454342004145532DAF
S315080004A03235362D454342004145532D3132382DDC
S315080004B0434243004145532D3139322D43424300CF
S315080004C04145532D3235362D434243004145532D80
S315080004D03132382D43434D004145532D3139322DA4
S315080004E043434D004145532D3235362D43434D0088
S315080004F04145532D3132382D43434D2A2D4E4F2D2C
S31508000500544147004145532D3139322D43434D2A35
S315080005102D4E4F2D544147004145532D3235362D2A
S3150800052043434D2A2D4E4F2D544147004145532DE7
S315080005303132382D4B5700004145532D3139322D74
S315080005404B5700004145532D3235362D4B57000089
S315080005504145532D3132382D4B5750004145532DC7
S315080005603139322D4B5750004145532D3235362DF2
S315080005704B57500002000000A1E90708BBE907082D
S31508000580F1E90708DDE9070805EA070823EA070885
S3150800059084040008101202009004000810130300D7
S315080005A09C04000810140400A80400089022050002
S315080005B0B404000890230600C0040008902407002D
S315080005C002000000000000000000000035EA0708ED
S315080005D035EA070875E907088FE90708CC04000813
S315080005E070822605D804000870832705E4040008ED
S315080005F070842805F004000870922905040500088F
S3150800060070932A051805000870942B05020000004F
S31508000610000000000000000077EA070891EA0708D2
S315080006204BEA070865EA07082C05000810C24E08B9
S315080006303805000810C34F084405000810C45008C0
S315080006405005000810D251085C05000810D352085E
S315080006506805000810D45308020000009005000839
S31508000660030000009805000804000000A005000823
S3150800067005000000A805000806000000B0050008EF
S3150800068007000000B805000826000000DC05000881
S3150800069027000000E405000828000000EC05000813
S315080006A029000000F40500082A000000FC050008DF
S315080006B02B000000040600084E000000280600086B
S315080006C04F000000300600085000000038060008F9
S315080006D051000000400600085200000048060008C5
S315080006E0530000005006000800000000000000004B
S315080006F04576656E74466C61677300004D75746562
S315080007007800000053656D6170686F7265000000BF
S315080007105461736B4E616D653F00000054687265E5
S315080007206164466C6167730051756575654E616DE8
S31508000730653F00007365637032353672310000001C
S31508000740030017000001000034070008000000003D
S315080007500000000000000000FFFFFFFFFFFFFFFF93
S31508000760FFFFFFFF0000000000000000000000007F
S3150800077001000000FFFFFFFF4B60D2273E3CCE3B47
S31508000780F6B053CCB0061D65BC86987655BDEBB35E
S31508000790E7933AAAD835C65A96C298D84539A1F4E5
S315080007A0A033EB2D817D0377F240A463E5E6BCF820
S315080007B047422CE1F2D1176BF551BF376840B6CBEB
S315080007C0CE5E316B5733CE2B169E0F7C4AEBE78EE7
S315080007D09B7F1AFEE242E34F512563FCC2CAB9F376
S315080007E0849E17A7ADFAE6BCFFFFFFFFFFFFFFFFDA
S315080007F000000000FFFFFFFF443A5C496E6573681E
S315080008005F776973756E5C576973756E5F4E6F6453
S31508000810655F41707020315C576973756E5F4E6F06
S3150800082064655F4170705C6765636B6F5F73646B6B
S315080008305F342E342E355C706C6174666F726D5C35
S31508000840656D6C69625C696E635C656D5F62757324
S315080008502E680000443A5C496E6573685F77697371
S31508000860756E5C576973756E5F4E6F64655F417030
S315080008707020315C576973756E5F4E6F64655F41B2
S3150800088070705C6765636B6F5F73646B5F342E347F
S315080008902E355C706C6174666F726D5C656D6C6923
S315080008A0625C7372635C656D5F636D752E630000D1
S315080008B0443A5C496E6573685F776973756E5C5711
S315080008C06973756E5F4E6F64655F41707020315C49
S315080008D0576973756E5F4E6F64655F4170705C67CC
S315080008E065636B6F5F73646B5F342E342E355C7093
S315080008F06C6174666F726D5C656D6C69625C73724F
S31508000900635C656D5F656D752E630000443A5C49EE
S315080009106E6573685F776973756E5C576973756E14
S315080009205F4E6F64655F41707020315C57697375FF
S315080009306E5F4E6F64655F4170705C6765636B6F71
S315080009405F73646B5F342E342E355C706C6174662D
S315080009506F726D5C656D6C69625C696E635C656D12
S315080009605F6275732E680000443A5C496E65736869
S315080009705F776973756E5C576973756E5F4E6F64E2
S31508000980655F41707020315C576973756E5F4E6F95
S3150800099064655F4170705C6765636B6F5F73646BFA
S315080009A05F342E342E355C706C6174666F726D5CC4
S315080009B0656D6C69625C696E635C656D5F677069BD
S315080009C06F2E6800443A5C496E6573685F77697391
S315080009D0756E5C576973756E5F4E6F64655F4170BF
S315080009E07020315C576973756E5F4E6F64655F4141
S315080009F070705C6765636B6F5F73646B5F342E340E
S31508000A002E355C706C6174666F726D5C656D6C69B1
S31508000A10625C7372635C656D5F6770696F2E6300F5
S31508000A20443A5C496E6573685F776973756E5C579F
S31508000A306973756E5F4E6F64655F41707020315CD7
S31508000A40576973756E5F4E6F64655F4170705C675A
S31508000A5065636B6F5F73646B5F342E342E355C7021
S31508000A606C6174666F726D5C656D6C69625C7372DD
S31508000A70635C656D5F6D73632E630000443A5C4981
S31508000A806E6573685F776973756E5C576973756EA3
S31508000A905F4E6F64655F41707020315C576973758E
S31508000AA06E5F4E6F64655F4170705C6765636B6F00
S31508000AB05F73646B5F342E342E355C706C617466BC
S31508000AC06F726D5C656D6C69625C7372635C656D93
S31508000AD05F73652E63000000443A5C496E6573686F
S31508000AE05F776973756E5C576973756E5F4E6F6471
S31508000AF0655F41707020315C576973756E5F4E6F24
S31508000B0064655F4170705C6765636B6F5F73646B88
S31508000B105F342E342E355C706C6174666F726D5C52
S31508000B20656D6C69625C7372635C656D5F75736134
S31508000B3072742E6300000000443A5C496E6573685F
S31508000B405F776973756E5C576973756E5F4E6F6410
S31508000B50655F41707020315C576973756E5F4E6FC3
S31508000B6064655F4170705C6765636B6F5F73646B28
S31508000B705F342E342E355C706C6174666F726D5CF2
S31508000B806D69637269756D5F6F735C636F6D6D6FA9
S31508000B906E5C736F757263655C6C69625C6C6962C6
S31508000BA05F6D656D2E6300004D656D5F536567412A
S31508000BB06C6C6F63496E7465726E616C0000000040
S31508000BC04D656D5F536567416C6C6F63457874431B
S31508000BD07269746963616C0005144000081C400062
S31508000BE009204000A6A6A6A6A6A6A6A6A65959A660
S31508000BF00BCD070819CD070821CD070843CD0708EF
S31508000C00D3CD070845CD07088FCD07082C0000006F
S31508000C10551D130069642D63652D6261736963430D
S31508000C206F6E73747261696E7473000042617369E2
S31508000C306320436F6E73747261696E74730000008B
S31508000C40551D0F0069642D63652D6B6579557361B4
S31508000C50676500004B65792055736167650000007C
S31508000C60551D250069642D63652D6578744B657976
S31508000C705573616765000000457874656E64656440
S31508000C80204B65792055736167650000551D110075
S31508000C9069642D63652D7375626A656374416C7446
S31508000CA04E616D65000000005375626A65637420C5
S31508000CB0416C74204E616D65000000006086480135
S31508000CC086F842010100000069642D6E657473633D
S31508000CD06170652D63657274747970650000000033
S31508000CE04E657473636170652043657274696669DD
S31508000CF0636174652054797065000000551D2000F5
S31508000D0069642D63652D63657274696669636174C8
S31508000D1065506F6C6963696573000000436572749A
S31508000D206966696361746520506F6C696369657388
S31508000D3000000000551D0E0069642D63652D73754E
S31508000D40626A6563744B65794964656E7469666938
S31508000D50657200005375626A656374204B65792075
S31508000D604964656E7469666965720000551D2300DD
S31508000D7069642D63652D617574686F726974794B42
S31508000D8065794964656E7469666965720000000074
S31508000D90417574686F72697479204B657920496466
S31508000DA0656E746966696572000000002A8648CE19
S31508000DB03D04010065636473612D776974682D537A
S31508000DC048413100454344534120776974682053AC
S31508000DD0484131002A8648CE3D0403010000000040
S31508000DE065636473612D776974682D53484132329F
S31508000DF03400000045434453412077697468205302
S31508000E0048413232340000002A8648CE3D040302A7
S31508000E100000000065636473612D776974682D535B
S31508000E20484132353600000045434453412077692E
S31508000E307468205348413235360000002A864886B1
S31508000E40F70D010101000000727361456E63727946
S31508000E507074696F6E000000525341002A8648CEAE
S31508000E603D02010069642D65635075626C69634BC8
S31508000E706579000047656E65726963204543206B96
S31508000E80657900002B8104010C00000069642D655A
S31508000E90634448004543206B657920666F72204598
S31508000EA0434448002A8648CE3D0301070000000057
S31508000EB0736563703235367231000000100C000815
S31508000EC003000000140C00082C0C000800010000A8
S31508000ED0400C000803000000440C0008540C0008ED
S31508000EE004000000600C000803000000640C000801
S31508000EF0780C0008000800008C0C000803000000AD
S31508000F00900C0008A80C000820000000BC0C000883
S31508000F1009000000C80C0008E00C000800000100E9
S31508000F20FC0C000803000000000D00081C0D00085A
S31508000F3008000000340D000803000000380D000802
S31508000F40540D0008020000006C0D000803000000A4
S31508000F50700D0008900D0008010000000000000058
S31508000F600000000000000000000000000000000073
S31508000F70AC0D000807000000B40D0008C40D0008F9
S31508000F8005040000D40D000808000000E00D000864
S31508000F90F40D000808040000080E00080800000008
S31508000FA0140E0008280E00080904000000000000BE
S31508000FB00000000000000000000000000000000023
S31508000FC03C0E000809000000480E0008580E0008EC
S31508000FD0010000005C0E000807000000640E00080F
S31508000FE0740E000802000000840E000805000000C8
S31508000FF08C0E0008940E0008030000000000000094
S3150800100000000000000000000000000000000000D2
S31508001010A40E000808000000B00E0008B00E000874
S3150800102003000000000000000000000000000000AF
S3150800103000000000000000000000000000000000A2
S315080010400000000000000000000000004000000052
S315080010504F53496E697400004B65726E656C277351
S315080010602049535220537461636B00004B65726EBE
S31508001070656C2773204D736720506F6F6C000000F6
S31508001080443A5C496E6573685F776973756E5C5739
S315080010906973756E5F4E6F64655F41707020315C71
S315080010A0576973756E5F4E6F64655F4170705C67F4
S315080010B065636B6F5F73646B5F342E342E355C70BB
S315080010C06C6174666F726D5C6D69637269756D5F6C
S315080010D06F735C6B65726E656C5C736F7572636556
S315080010E05C6F735F636F72652E6300004F535363C3
S315080010F06865644C6F636B004F535363686564554A
S315080011006E6C6F636B0000004F535374617274000A
S315080011104F53466C61674372656174650000000051
S31508001120443A5C496E6573685F776973756E5C5798
S315080011306973756E5F4E6F64655F41707020315CD0
S31508001140576973756E5F4E6F64655F4170705C6753
S3150800115065636B6F5F73646B5F342E342E355C701A
S315080011606C6174666F726D5C6D69637269756D5FCB
S315080011706F735C6B65726E656C5C736F75726365B5
S315080011805C6F735F666C61672E6300004F53466C35
S31508001190616750656E6400004F53466C6167506F17
S315080011A0737400004F535F4D7367506F6F6C496ED1
S315080011B069740000443A5C496E6573685F776973C1
S315080011C0756E5C576973756E5F4E6F64655F4170C7
S315080011D07020315C576973756E5F4E6F64655F4149
S315080011E070705C6765636B6F5F73646B5F342E3416
S315080011F02E355C706C6174666F726D5C6D696372B6
S3150800120069756D5F6F735C6B65726E656C5C736F29
S31508001210757263655C6F735F6D73672E630000009C
S315080012204F534D75746578437265617465000000A7
S31508001230443A5C496E6573685F776973756E5C5787
S315080012406973756E5F4E6F64655F41707020315CBF
S31508001250576973756E5F4E6F64655F4170705C6742
S3150800126065636B6F5F73646B5F342E342E355C7009
S315080012706C6174666F726D5C6D69637269756D5FBA
S315080012806F735C6B65726E656C5C736F75726365A4
S315080012905C6F735F6D757465782E63004F534D757B
S315080012A074657844656C00004F534D7574657850C5
S315080012B0656E64004F534D75746578506F7374008E
S315080012C04F5353656D43726561746500443A5C49D2
S315080012D06E6573685F776973756E5C576973756E4B
S315080012E05F4E6F64655F41707020315C5769737536
S315080012F06E5F4E6F64655F4170705C6765636B6FA8
S315080013005F73646B5F342E342E355C706C61746663
S315080013106F726D5C6D69637269756D5F6F735C6B17
S3150800132065726E656C5C736F757263655C6F735F0F
S3150800133073656D2E630000004F5353656D44656CED
S31508001340000000004F5353656D50656E6400000041
S315080013504F5353656D506F7374000000443A5C49EF
S315080013606E6573685F776973756E5C576973756EBA
S315080013705F4E6F64655F41707020315C57697375A5
S315080013806E5F4E6F64655F4170705C6765636B6F17
S315080013905F73646B5F342E342E355C706C617466D3
S315080013A06F726D5C6D69637269756D5F6F735C6B87
S315080013B065726E656C5C736F757263655C6F735F7F
S315080013C07461736B2E6300004F535461736B4372E1
S315080013D065617465000000004F535461736B446582
S315080013E06C0000004F535461736B52656747657410
S315080013F0000000004F535F5461736B496E697400B7
S31508001400443A5C496E6573685F776973756E5C57B5
S315080014106973756E5F4E6F64655F41707020315CED
S31508001420576973756E5F4E6F64655F4170705C6770
S3150800143065636B6F5F73646B5F342E342E355C7037
S315080014406C6174666F726D5C6D69637269756D5FE8
S315080014506F735C6B65726E656C5C736F75726365D2
S315080014605C6F735F74696D652E6300004F53546932
S315080014706D65446C79000000000505050505010247
S3150800148003040000780038FFFF007800120000000F
S31508001490F0003516D962F9FF7D00AD092934FEFF43
S315080014A05100F604F5B0FFFF3B0013033427000094
S315080014B02D00A002643B000022005C013A5E000099
S315080014C022005F01745D00001000680005470000F7
S315080014D0D2006DFFFF00D20028000000F000D30DF7
S315080014E0CF5EF8FF670074045E9BFEFF3700240298
S315080014F0CDC3FFFF21004A016D0F00001300CA008B
S31508001500A02600000C007D004329000007004600C5
S315080015107E22000004002A006B1A00008200CAFE20
S31508001520FF0082001C000000F000E0082D3CFFFFD1
S31508001530A600E8065AF7FFFF7800BA04888F00006D
S3150800154058007A03BBC400003E0066024DD3000073
S315080015502E00D00186CB000020004C012EB50000DD
S3150800156012005D001864000014005CFEFF00140001
S315080015701C000000F000D20743120300A300B306C4
S3150800158082FD02007F00E2041FB502005D007B03B6
S31508001590C05602004200BC02D80D02003100DE012E
S315080015A069A3010022007A01906701001400650012
S315080015B0EF970000BAFF3EFEFF00BAFF1E000000CC
S315080015C0F0001F0854F80500A3009706D15005003F
S315080015D07A00A404504C040057004B036D6F0300B7
S315080015E03D0059029CB702002A00B8010A290200E8
S315080015F01E00310100A4010012007E0025D600005D
S31508001600000901F084140008000901F0D01400084C
S31508001610000901F01C150008000901F0681500080A
S31508001620000901F0B41500080000000000000000E1
S3150800163050726F632D547970653A20342C454E43A9
S315080016405259505445440000443A5C496E657368E3
S315080016505F776973756E5C576973756E5F4E6F64F5
S31508001660655F41707020315C576973756E5F4E6FA8
S3150800167064655F4170705C6765636B6F5F73646B0D
S315080016805F342E342E355C7574696C5C74686972C7
S31508001690645F70617274795C6D626564746C735CA6
S315080016A06C6962726172795C70656D2E6300000008
S315080016B0443A5C496E6573685F776973756E5C5703
S315080016C06973756E5F4E6F64655F41707020315C3B
S315080016D0576973756E5F4E6F64655F4170705C67BE
S315080016E065636B6F5F73646B5F342E342E355C7085
S315080016F06C6174666F726D5C70657269706865722C
S31508001700616C5C7372635C7065726970686572613E
S315080017106C5F7379737274632E630000454300002F
S3150800172045435F44480000004543445341000000D8
S315080017304F7061717565000065636B65792E5100A0
S31508001740020000001C170008D3CE0708B3CE07080E
S315080017507FD107080DD4070800000000000000002C
S3150800176053D60708FDD6070817D7070829D7070845
S315080017700300000020170008D3CE07083BD7070848
S31508001780000000000000000000000000000000004B
S3150800179053D60708FDD6070817D7070829D7070815
S315080017A00400000028170008D3CE070853D70708F7
S315080017B07FD107080DD407080000000000000000CC
S315080017C053D60708FDD6070817D7070829D70708E5
S315080017D0070000003017000863D7070895D70708E1
S315080017E0D1D00708E7D30708000000000000000072
S315080017F067D607080000000000000000000000008F
S31508001800070000003017000863D70708ADD7070898
S3150800181000000000C5D7070800000000000000000F
S3150800182000000000000000000000000000000000AA
S31508001830443A5C496E6573685F776973756E5C5781
S315080018406973756E5F4E6F64655F41707020315CB9
S31508001850576973756E5F4E6F64655F4170705C673C
S3150800186065636B6F5F73646B5F342E342E355C75FE
S3150800187074696C5C74686972645F70617274795CAF
S315080018806D626564746C735C6C6962726172795CB2
S31508001890706B70617273652E630000002D2D2D2DFF
S315080018A02D424547494E20454320505249564154FA
S315080018B045204B45592D2D2D2D2D00002D2D2D2D37
S315080018C02D454E4420454320505249564154452003
S315080018D04B45592D2D2D2D2D000000002D2D2D2D7C
S315080018E02D424547494E2050524956415445204BB2
S315080018F045592D2D2D2D2D002D2D2D2D2D454E44A3
S315080019002050524956415445204B45592D2D2D2DD1
S315080019102D000000666E692D00000000666E692BBA
S3150800192000000000505341004B45590000000000DC
S315080019307AFF80AF79FF00AF73FF80AE000000002A
S3150800194073FF00817AFF808F6BFF808E79FF008F8F
S3150800195077FF009476FF0096000000007BFF80B0BA
S3150800196079FF80B078FF80B176FF00B16CFF00B3D5
S315080019706BFF00B2142902000039130000000100B1
S3150800198002640001012F000007000000A2A0000069
S31508001990A2A00000204E0000F7750000F7750000B1
S315080019A00B1A000001000000C0175302040C0000C7
S315080019B0E002000000003C0301020504980301024E
S315080019C00505F403010206050702010101000000EE
S315080019D0070500020500000010000000A3703D0086
S315080019E000000000741900088C19000800000000A7
S315080019F0080000000000000050C300000101F500C7
S31508001A000317500700000000A41900080000000092
S31508001A10000000000000000050C3000000000000A5
S31508001A2000000000000000001000000033333300FF
S31508001A30000000007419000898190008000000004A
S31508001A400800000000000000F04902000101F4004F
S31508001A50811B100700000000A41900080000000000
S31508001A600000000000000000F2490200000000002B
S31508001A7000000000000000000C4002000CB111003C
S31508001A80004800002040020000000000000000009E
S31508001A90304007002508000000010000FF00000094
S31508001AA0410301004060000000600000A00700003C
S31508001AB0504001000B0000005C4002000F0D0000C2
S31508001AC001010000A840010007000000BC40040016
S31508001AD000000000000000000000000000000000F8
S31508001AE00841040001400000FF0C0000014100000D
S31508001AF0FF0D000020C0011000F8070020C00130CB
S31508001B00FE01280024C00110FF00000024C0013097
S31508001B100013000028C00800EC80B3034375405149
S31508001B20A00F00B830400000A8AA07000000000077
S31508001B30000000000000000054C014008721300097
S31508001B4085007CE68F010000496471787C000000FE
S31508001B5088C60200A0040000BA10000000003F007A
S31508001B608D00EE00F601AC03F5049607DE099C0D20
S31508001B70C3119317FE1DF526BD32FF3FFE15F81B50
S31508001B80DC23B42DD039FF3FFF3F0000A8C0050075
S31508001B90BD4B721511A3180510325476980A000029
S31508001BA000000000CCC00400FE0100000000000098
S31508001BB001000A0001002800080001010E170000B4
S31508001BC018000101FFFFFFFF200001012083B8ED87
S31508001BD040402601000050210000000010000000CF
S31508001BE0000000042FC28200000000200000000050
S31508001BF0000000030000002000000000BD60FE0099
S31508001C00400C00004A000000120020000972000083
S31508001C1009720000430F00000000000090032B002B
S31508001C2000000662000000000000000A4A545454EE
S31508001C300000000000000000000000000000000096
S31508001C400000000000000000000000000000000086
S31508001C500000000000000000000000000000000076
S31508001C60000000000000000000000000E040011134
S31508001C70F8010000E04001310102000010410201B4
S31508001C80331E0500000000001C410E010000808E76
S31508001C9000000000FF0483078813C83AFF06660C95
S31508001CA0FF0483078813FF03BC200AF0BB7A5000A1
S31508001CB00375B14000004E90B6CFE9418B3B40001A
S31508001CC0C00300805841020100000000FFFD00002B
S31508001CD0644101010C0100006C410B010000004049
S31508001CE000000000000000000000000000000000E6
S31508001CF000000000010100000000000000000000D4
S31508001D000000000000000000A441020100000000DD
S31508001D1000000000B0410C010000000068D52FC08B
S31508001D20000000000000000000003C00AAAA06000F
S31508001D30000000000000000055555555E781BB809E
S31508001D400600020000000000E4411501F907E11150
S31508001D50CCE90500328E6C0032B14E0082011C0EB1
S31508001D6074F765029B2550331DACF10E74390C00CF
S31508001D70B080760089DCB300933C6400C689C7044A
S31508001D808F1A651D00000080000000005800000042
S31508001D90000000006018004000000000000000007D
S31508001DA03C42010100000000444203011400000007
S31508001DB00000000008000504544201018D000000DF
S31508001DC030430F0100000000000000000020000062
S31508001DD000000000000000000000000000000000F5
S31508001DE000000000000000000000000000000000E5
S31508001DF00000003800000000000000000000FF5846
S31508001E00108001010300000038800201031710004A
S31508001E10030000009C8003010000000070B8030066
S31508001E2070B80300A8800111F6010000A8800131EE
S31508001E3001420101AC800111F6010000AC800131BC
S31508001E4001420101B0800201000300020003000202
S31508001E509800030200000000000C00044C04000077
S31508001E60D8000202050040AA88010000EC00011211
S31508001E70E00F0000EC0001320D205151F000010284
S31508001E802B050000000101021001000004010112E7
S31508001E9000000000040101321001000010010112C7
S31508001EA000FF0F0010010132020000422C0101124E
S31508001EB000FC1F002C010132A9008000400101022C
S31508001EC03F0000005001011200C00000500101321D
S31508001ED062005100680102020000060000200600A8
S31508001EE0740101026901100C7801011200001C003E
S31508001EF0780101324004E0CF800101127907000021
S31508001F0080010132060000008801020290000000EC
S31508001F1000000000AC010112F8010000AC0101321A
S31508001F2004020100B001010200000000406008033D
S31508001F300000000800100001002020000002080030
S31508001F400040010040000200000480001000040068
S31508001F50FC7F0103D8190008FFFFFFFF0C400200B1
S31508001F600CB11100004800002040020000000000EB
S31508001F7000000000304007002508000000010000AE
S31508001F80FF000000410301004060000000600000FF
S31508001F90A0070000504001000B0000005C40020052
S31508001FA00F0D000001010000A84001000700000015
S31508001FB0BC40040000000000000000000000000013
S31508001FC0000000000841040001400000FF0C00006A
S31508001FD001410000FF0D000020C0011000F80700B5
S31508001FE020C00130FE01280024C00110FF000000B7
S31508001FF024C001300013000028C00800EC80B30399
S3150800200043754051A00F00B830400000A8AA070049
S3150800201000000000000000000000000054C014008A
S3150800202087213000700068E6500100003E545F6565
S315080020306800000088C60200A0040000BA1000006C
S3150800204000003F008D00EE00F601AC03F50496078C
S31508002050DE099C0DC3119317FE1DF526BD32FF3F01
S31508002060FE15F81BDC23B42DD039FF3FFF3F0000D7
S31508002070A8C00500BD4B721511A318051032547679
S31508002080980A000000000000CCC00400EE00000022
S315080020900000000001000A000100280008000101F4
S315080020A00E17000018000101FFFFFFFF20000101C5
S315080020B02083B8ED40402601000070210000000092
S315080020C010000000000000042FC28200000000007B
S315080020D000000000000000030000002000000000CF
S315080020E03F20FE00400800004800000012003000B3
S315080020F00972000009720000501F0000000000006D
S31508002100B203080000000662000000000000000A92
S315080021104A5454540000000000000000000000006B
S3150800212000000000000000000000000000000000A1
S315080021300000000000000000000000000000000091
S315080021400000000000000000000000000000000081
S31508002150E0400111F8010000E040013101020000F1
S3150800216010410201331E0500000000001C410E014B
S315080021700050558C00000000FF0483078813C83AF6
S31508002180FF06660CFF0483078813FF03BC200AF0CA
S31508002190046E50000169A74000004E90ACA148416A
S315080021A08B3B4000C003008058410201000000003C
S315080021B0FFFD0000644101010C0100006C410B01A8
S315080021C000000040000000000000000000000000C1
S315080021D000000000000000000101000000000000EF
S315080021E0000000000000000000000000A4410201F9
S315080021F00000000000000000B0410C0100000000D3
S3150800220068D52FC0000000000000000000003C0058
S31508002210AAAA060000000000000000005555555502
S31508002220E780BB800400020000000000E4411501BD
S315080022300BE0F11498090100DB757000F5F14C000C
S315080022408540FD0D4A38A70254252B32EA6B8F00CC
S31508002250B3000E00773A0E002FBFBB0015BA4C0F1D
S315080022602206A704981DF92100000080000000003E
S315080022707800000000000000601800400000000020
S31508002280000000003C420101000000004442030136
S315080022901400000000000000080003045442010175
S315080022A08D00000030430F01000000000000000010
S315080022B000200000000000000000000000000000F0
S315080022C00000000000000000000000000000000000
S315080022D000000000000000380000000000000000B8
S315080022E00000FF5810800101030000003880020139
S315080022F0811B1000030000009C8003010000000001
S3150800230070B8030070B80300A8800111F601000038
S31508002310A880013101420101AC800111F6010000DB
S31508002320AC80013101420101B080020100030002C4
S31508002330000300029800030200000000000C0004DD
S315080023404C040000D8000202050040AA88010000DB
S31508002350EC000112E00F0000EC0001320D20515193
S31508002360F00001022B050000000101021001000027
S3150800237004010112000000000401013210010000EE
S315080023801001011200FF0F00100101320200004285
S315080023902C01011200FC1F002C010132A90080004B
S315080023A0400101023F0000005001011200C0000078
S315080023B05001013263005100680102020000060064
S315080023C000200600740101026901100C780101124F
S315080023D000001C00780101324004E0CF80010112A0
S315080023E07907000080010132060000008801020218
S315080023F09000000000000000AC010112F801000086
S31508002400AC01013204020100B00101020000000023
S3150800241040600803000000080010000100202000AA
S31508002420000208000040010040000200000480008D
S3150800243010000400FC7F0103281A0008FFFFFFFFB5
S3150800244000000000C07AC635400D030000000000F9
S315080024508000FF7FF011002000000000C819000866
S315080024600000000000000000E0609033400D03000B
S31508002470000000000E00FF7FF81100200000000099
S31508002480D019000800000000781A000800000000B3
S31508002490402400080100000000000000C017530295
S315080024A05C1F00080000000064240008010000000A
S315080024B000000000C01753020200017A050001B5AA
S315080024C000000000010000000000000000000000FD
S315080024D001000000100000200000000001000000BC
S315080024E010000020000000000100000000000000AD
S315080024F0000000000100000010000020000000009D
S31508002500010000001000002000000000010000008B
S3150800251000000000000000000100000000000000AC
S315080025205465726D696E616C000000000000000061
S3150800253000005454522052454747455300000000B6
S3150800254001031001010903000B0000000C00000044
S315080025500300000000002020000000000200000028
S315080025603C3C3C00000000000000000000000000A9
S31508002570443A5C496E6573685F776973756E5C5734
S315080025806973756E5F4E6F64655F41707020315C6C
S31508002590576973756E5F4E6F64655F4170705C67EF
S315080025A065636B6F5F73646B5F342E342E355C70B6
S315080025B06C6174666F726D5C736572766963655C6F
S315080025C0696F73747265616D5C7372635C736C5F5B
S315080025D0696F73747265616D2E630000443A5C49D5
S315080025E06E6573685F776973756E5C576973756E28
S315080025F05F4E6F64655F41707020315C5769737513
S315080026006E5F4E6F64655F4170705C6765636B6F84
S315080026105F73646B5F342E342E355C706C61746640
S315080026206F726D5C736572766963655C696F7374E6
S315080026307265616D5C7372635C736C5F696F7374EA
S315080026407265616D5F72657461726765745F7374D4
S3150800265064696F2E63000000443A5C496E657368CE
S315080026605F776973756E5C576973756E5F4E6F64D5
S31508002670655F41707020315C576973756E5F4E6F88
S3150800268064655F4170705C6765636B6F5F73646BED
S315080026905F342E342E355C706C6174666F726D5CB7
S315080026A073656375726974795C736C5F636F6D705B
S315080026B06F6E656E745C736C5F6D626564746C7363
S315080026C05F737570706F72745C696E635C74687240
S315080026D0656164696E675F616C742E68000000004E
S315080026E0443A5C496E6573685F776973756E5C57C3
S315080026F06973756E5F4E6F64655F41707020315CFB
S31508002700576973756E5F4E6F64655F4170705C677D
S3150800271065636B6F5F73646B5F342E342E355C7044
S315080027206C6174666F726D5C7365637572697479D2
S315080027305C736C5F636F6D706F6E656E745C736CE3
S315080027405F6D626564746C735F737570706F7274B5
S315080027505C7372635C736C5F6D626564746C732E14
S3150800276063000000443A5C496E6573685F77697375
S31508002770756E5C576973756E5F4E6F64655F417001
S315080027807020315C576973756E5F4E6F64655F4183
S3150800279070705C6765636B6F5F73646B5F342E3450
S315080027A02E355C706C6174666F726D5C73656375EB
S315080027B0726974795C736C5F636F6D706F6E656E4A
S315080027C0745C736C5F7073615F6472697665725C62
S315080027D07372635C736C5F7073615F6974735F6E49
S315080027E0766D332E630000000000000000D4300030
S315080027F0000000000000000000000000443A5C49A8
S315080028006E6573685F776973756E5C576973756E05
S315080028105F4E6F64655F41707020315C57697375F0
S315080028206E5F4E6F64655F4170705C6765636B6F62
S315080028305F73646B5F342E342E355C706C6174661E
S315080028406F726D5C656D6C69625C696E635C656D03
S315080028505F6275732E680000443A5C496E6573685A
S315080028605F776973756E5C576973756E5F4E6F64D3
S31508002870655F41707020315C576973756E5F4E6F86
S3150800288064655F4170705C6765636B6F5F73646BEB
S315080028905F342E342E355C706C6174666F726D5CB5
S315080028A073656375726974795C736C5F636F6D7059
S315080028B06F6E656E745C73655F6D616E6167657278
S315080028C05C7372635C736C5F73655F6D616E616781
S315080028D065722E6300000000000000000100000081
S315080028E000000000000000000100000000000000D9
S315080028F00000000001000000100000200000000099
S3150800290001000000000000000000000001000000B7
S315080029100000000000000000010000001000002078
S315080029200000000001000000100000200000000068
S315080029300100000000000000000000000100000087
S315080029400000000000000000010000001000002048
S315080029500000000001000000000000000000000068
S315080029600100000000000000000000000100000057
S315080029700000000000000000010000000000000048
S315080029800000000001000000000000000000000038
S315080029900100000000000000000000000100000027
S315080029A00000000000000000010000000000000018
S315080029B00000000001000000000000000000000008
S315080029C001000000000000000000000001000000F7
S315080029D000000000000000000100000000000000E8
S315080029E000000000010000000000000000000000D8
S315080029F0010000000400002067452301EFCDAB89E4
S31508002A0098BADCFE10325476C3D2E1F0000000001A
S31508002A100000000000000000C1059ED8367CD507DE
S31508002A203070DD17F70E5939FFC00B31685815118C
S31508002A3064F98FA7BEFA4FA46A09E667BB67AE8535
S31508002A403C6EF372A54FF53A510E527F9B05688C82
S31508002A501F83D9AB5BE0CD19000000000100000020
S31508002A600000000000000000010000000000000057
S31508002A700000000001000000000000000000000047
S31508002A800100000000000000000000000100000036
S31508002A900000000000000000010000000000000027
S31508002AA00000000001000000000000000000000017
S31508002AB00100000000000000000000000000000007
S31508002AC000000000010000000000000000000000F7
S31508002AD001000000000000000000000001000000E6
S31508002AE000000000000000000100000000000000D7
S31508002AF000000000010000000000000000000000C7
S31508002B0001000000000000000000000001000000B5
S31508002B1024000020443A5C496E6573685F776973E0
S31508002B20756E5C576973756E5F4E6F64655F41704D
S31508002B307020315C576973756E5F4E6F64655F41CF
S31508002B4070705C6765636B6F5F73646B5F342E349C
S31508002B502E355C706C6174666F726D5C7365727627
S31508002B606963655C736C65657074696D65725C73C1
S31508002B7072635C736C5F736C65657074696D65729E
S31508002B802E630000010000000000000000000000A5
S31508002B9000000000443A5C496E6573685F776973A4
S31508002BA0756E5C576973756E5F4E6F64655F4170CD
S31508002BB07020315C576973756E5F4E6F64655F414F
S31508002BC070705C6765636B6F5F73646B5F342E341C
S31508002BD02E355C706C6174666F726D5C636F6D6DBB
S31508002BE06F6E5C7372635C736C5F736C6973742E5F
S31508002BF063000000417070576973756E6B4D75748C
S31508002C0065780000417070576973756E457674462D
S31508002C106C61677300000000766F696420736C5FEF
S31508002C20776973756E5F6E6574776F726B5F7570B3
S31508002C30646174655F6576656E745F686E64287333
S31508002C407472756374203C756E6E616D65643E239F
S31508002C50313030202A290000474C4F42414C0000B1
S31508002C605B2573204E6574776F726B20757064618F
S31508002C7074653A20476C6F62616C2025735D0A00A3
S31508002C805052494D5F504152454E54005B257320C2
S31508002C904E6574776F726B207570646174653A203F
S31508002CA05072696D61727920506172656E74202563
S31508002CB0735D0A005345435F504152454E54000028
S31508002CC05B2573204E6574776F726B20757064612F
S31508002CD074653A205365636F6E646172792050613A
S31508002CE072656E742025735D0A0000002573282915
S31508002CF02072657475726E6564203D2030782530C3
S31508002D00386C78200A000000766F696420736C5F5F
S31508002D10776973756E5F636F6E6E65637465645FFE
S31508002D206576656E745F686E64287374727563740D
S31508002D30203C756E6E616D65643E23313030202A05
S31508002D40290000005B436F6E6E656374696F6E20C1
S31508002D506661696C65642E205374617475733A20D4
S31508002D60256C755D0A0000005B256C7520735D0A8D
S31508002D7000000000766F696420736C5F776973756D
S31508002D806E5F646973636F6E6E65637465645F65B1
S31508002D9076656E745F686E642873747275637420E2
S31508002DA03C756E6E616D65643E23313030202A298C
S31508002DB0000000005B446973636F6E6E656374653B
S31508002DC0645D0A00766F696420736C5F7769737552
S31508002DD06E5F636F6E6E656374696F6E5F6C6F733B
S31508002DE0745F6576656E745F686E64287374727551
S31508002DF06374203C756E6E616D65643E23313030B8
S31508002E00202A29005B436F6E6E656374696F6E20B6
S31508002E106C6F73742C20636F6E6E656374696E676E
S31508002E2020746F20222573225D0A00005B57692DE6
S31508002E3053554E206E6574776F726B206572726F8C
S31508002E4072206F6363757265642E2053746174759E
S31508002E50733A20256C750A00766F696420736C5F77
S31508002E60776973756E5F6A6F696E5F73746174658F
S31508002E705F6576656E745F686E64287374727563D1
S31508002E8074203C756E6E616D65643E23313030206A
S31508002E902A2900005B4A6F696E2073746174653A6B
S31508002EA02025732028256C75295D0A00766F6964CC
S31508002EB020736C5F776973756E5F6C666E5F77619A
S31508002EC06B655F75705F686E64287374727563747A
S31508002ED0203C756E6E616D65643E23313030202A64
S31508002EE029000000766F696420736C5F77697375D3
S31508002EF06E5F6D756C7469636173745F7265675F25
S31508002F0066696E6973685F686E6428737472756340
S31508002F1074203C756E6E616D65643E2331303020D9
S31508002F202A2900005F6170705F636F72655F6D7458
S31508002F307820213D20300000443A5C496E6573686C
S31508002F405F776973756E5C576973756E5F4E6F64EC
S31508002F50655F41707020315C576973756E5F4E6F9F
S31508002F6064655F4170705C6765636B6F5F73646B04
S31508002F705F342E342E355C6170705C776973756EBC
S31508002F805C636F6D706F6E656E745C6170705F63A5
S31508002F906F72655C736C5F776973756E5F6170706D
S31508002FA05F636F72652E63005F6170705F636F7237
S31508002FB0655F737461746520213D20300000000050
S31508002FC0766F696420736C5F776973756E5F61707D
S31508002FD0705F636F72655F6E6574776F726B5F6340
S31508002FE06F6E6E65637428766F6964290000000049
S31508002FF05B4661696C65643A20756E61626C652032
S31508003000746F206765742073657474696E67730AD4
S31508003010000000005B4661696C65643A20616C7269
S315080030206561647920636F6E6E656374696E672087
S315080030306F7220636F6E6E65637465645D0A000067
S315080030400A5B436F6E6E656374696E6720746F20E2
S31508003050222573225D0A00000A5B436F6E6E656364
S3150800306074696F6E206661696C65643A20256C75B3
S315080030705D0A00005B4661696C65643A20756E619D
S31508003080626C6520746F2073657420646576696365
S315080030906520747970653A20256C755D0A00000014
S315080030A05B4661696C65643A20756E61626C652081
S315080030B0746F20736574206E6574776F726B2073F6
S315080030C0697A653A20256C755D0A00005B46616978
S315080030D06C65643A20756E61626C6520746F207346
S315080030E0657420545820706F7765723A20256C7580
S315080030F05D0A00005B4661696C65643A20756E611D
S31508003100626C6520746F2073657420616C6C6F77D0
S315080031106564206368616E6E656C733A20256C750C
S315080031205D0A00005B4661696C65643A20756E61EC
S31508003130626C6520746F20736574207468652074EA
S315080031407275737465642063657274696669636110
S3150800315074653A20256C755D0A0000005B46616956
S315080031606C65643A20756E61626C6520746F2073B5
S31508003170657420746865206465766963652063658F
S315080031807274696669636174653A20256C755D0AAF
S31508003190000000005B4661696C65643A20756E61E3
S315080031A0626C6520746F207365742074686520648A
S315080031B065766963652070726976617465206B65EA
S315080031C0793A20256C755D0A000000006F734D750D
S315080031D074657841637175697265285F6170705F9F
S315080031E0636F72655F6D74782C2030784646464664
S315080031F0464646465529203D3D206F734F4B0000F5
S315080032006F734D7574657852656C65617365285F73
S315080032106170705F636F72655F6D747829203D3DDC
S31508003220206F734F4B0000005B47657474696E67C7
S31508003230202725732720616464726573732066618D
S31508003240696C6564215D0A005B252D3134733A206B
S3150800325025735D0A000000000A4164647265737391
S3150800326065733A0A000000004C494E4B5F4C4F43C9
S31508003270414C0000424F524445525F524F55544507
S31508003280520000005052494D4152595F5041524533
S315080032904E5400005345434F4E444152595F5041E6
S315080032A052454E5400000000F42B000801000000AF
S315080032B00000000000000000042C000800000000C8
S315080032C000000000000000000A25730A0000000044
S315080032D02A2057692D53554E20537461636B207607
S315080032E0657273696F6E0000417070576973756E09
S315080032F053657474696E674D7574657800000000CF
S31508003300417070576973756E53657474696E674555
S315080033107674466C616773005F6170705F77697376
S31508003320756E5F73657474696E675F6D7478202156
S315080033303D203000443A5C496E6573685F7769736F
S31508003340756E5C576973756E5F4E6F64655F417025
S315080033507020315C576973756E5F4E6F64655F41A7
S3150800336070705C6765636B6F5F73646B5F342E3474
S315080033702E355C6170705C776973756E5C636F6D12
S31508003380706F6E656E745C6170705F736574746976
S315080033906E675C736C5F776973756E5F6170705F7B
S315080033A073657474696E672E630000005F6E6F74D0
S315080033B0696669636174696F6E735B6964785D2EAB
S315080033C06576745F696420213D2030006F734D7502
S315080033D074657841637175697265285F6170705F9D
S315080033E0776973756E5F73657474696E675F6D74FC
S315080033F0782C203078464646464646464655292085
S315080034003D3D206F734F4B006F734D757465785251
S31508003410656C65617365285F6170705F7769737540
S315080034206E5F73657474696E675F6D747829203D85
S315080034303D206F734F4B0000E83200080100000082
S315080034400000000000000000003300080000000033
S315080034500000000000000000496E6573685F3100D7
S31508003460000000000000000000000000000000004E
S315080034700000000000000000000114000001000028
S315080034800000050203000000000000000000000024
S31508003490489300203600000058340008FF0000005A
S315080034A0000000000000000000000000000000000E
S315080034B00000000000000000000000002D2D2D2D4A
S315080034C02D424547494E2050524956415445204BB6
S315080034D045592D2D2D2D2D0D0A4D49474841674536
S315080034E0414D424D4742797147534D3439416745FD
S315080034F04743437147534D3439417745484247302E
S315080035007761774942415151677546316F4275492E
S315080035104D7A4F7470734F4D480D0A646639377685
S3150800352072324770705166584F4B444A34526F672F
S31508003530464D6B3751436852414E434141536F36AE
S31508003540717536654866364143767A6472724332D7
S315080035506B4835434647387A696A310D0A314E3128
S315080035605634304B6A52715A65484E745377584BE5
S315080035705844733642754371326749704343356818
S315080035804F78754A796C347378612F684E58736E24
S3150800359046666F69500D0A2D2D2D2D2D454E44205A
S315080035A050524956415445204B45592D2D2D2D2D08
S315080035B0000000002D2D2D2D2D424547494E204354
S315080035C0455254494649434154452D2D2D2D2D0D1F
S315080035D00A4D494942794443434157366741774939
S315080035E04241674955505274724663413664773092
S315080035F0337354704431644172487046693635678E
S3150800360077436759494B6F5A497A6A304541774932
S31508003610770D0A486A45634D426F47413155454122
S3150800362077775456326B745531564F4945526C620A
S31508003630573867556D397664434244515441674655
S315080036407730794D54417A4D4445774E7A51794EC3
S315080036504442610D0A474138354F546B354D54493C
S315080036607A4D54497A4E546B314F566F77485445C4
S31508003670624D426B47413155454177775356326B18
S31508003680745531564F4945526C62573867524756FA
S315080036903261574E6C0D0A4D466B77457759484B44
S315080036A06F5A497A6A3043415159494B6F5A497A98
S315080036B06A30444151634451674145714F7172758F
S315080036C06E68332B67417238336136777470422BD4
S315080036D0516852764D346F0D0A3964546456654EF6
S315080036E0436F30616D58687A62557346796C7737DF
S315080036F04F67626771746F434B51677559547362AC
S31508003700696370654C4D5776345456374A7858363F
S31508003710496A364F42694443420D0A6854414F424A
S31508003720674E56485138424166384542414D4341F5
S31508003730346777495159445652306C4151482F42A3
S315080037404263774651594A4B775942424147433576
S3150800375043554242676772426745460D0A425163BE
S3150800376044416A417642674E564852454241663858
S31508003770454A54416A6F4345474343734741515548
S3150800378046427767456F4255774577594A4B775989
S31508003790424241474374304543424159780D0A4DE8
S315080037A06A4D304E545977487759445652306A42D2
S315080037B0426777466F41556B3254554476646F6F4E
S315080037C0753564384B7A3663727A46483031504FCD
S315080037D0695177436759494B6F5A497A6A30450D9B
S315080037E00A417749445341417752514968414E420B
S315080037F07846574D7A4E4D4B79412B6E4D4B30736B
S3150800380062435570714B3167564D79656F4B7168D8
S31508003810307A765333434F794C41694178386E4351
S315080038204E0D0A4237526B5738526D5A30554D571E
S31508003830593236673750365462714A694149337A84
S315080038406F4B6B5378704A50673D3D0D0A2D2D2DF1
S315080038502D2D454E4420434552544946494341542B
S31508003860452D2D2D2D2D00002D2D2D2D2D42454775
S31508003870494E2043455254494649434154452D2D06
S315080038802D2D2D0D0A4D4949426F6A434341556D09
S31508003890674177494241674955534F4A66674930F8
S315080038A0384A445764416A757176483352454D79AA
S315080038B06A6A467377436759494B6F5A497A6A3039
S315080038C045417749770D0A486A45634D426F474136
S315080038D03155454177775456326B745531564F49B1
S315080038E045526C62573867556D3976644342445180
S315080038F0544167467730794D5441794D6A49774F37
S315080039005455354E4446610D0A474138354F546B78
S31508003910354D54497A4D54497A4E546B314F566F4A
S3150800392077486A45634D426F474131554541777738
S315080039305456326B745531564F4945526C62573856
S3150800394067556D3976644342440D0A5154425A4DBF
S31508003950424D4742797147534D343941674547438C
S31508003960437147534D3439417745484130494142BF
S3150800397047314D6E346464392B49564A5A53456368
S315080039806A70464B656876765279510D0A743951D4
S31508003990634942434E327973662B424A556C4666F2
S315080039A05538547643337732776146724C75432BD4
S315080039B04A484D2B315442456D31474C4E444637A3
S315080039C070694367716C74576A597A42680D0A4D73
S315080039D042494741315564457745422F7751494D0C
S315080039E041594241663843415149774377594456CC
S315080039F052305042415144416745474D4230474154
S31508003A0031556444675157424253545A4E514F0DEB
S31508003A100A39326969376C337772507079764D5541
S31508003A2066545538364A44416642674E5648534DA1
S31508003A304547444157674253545A4E514F393269A4
S31508003A4069376C337772507079764D5566545538A8
S31508003A50360D0A4A44414B42676771686B6A4F5094
S31508003A6051514441674E4841444245416941646C5D
S31508003A704D33454E64643747484862547354695A0F
S31508003A804D63375435444446513261626555493170
S31508003A9062652B0D0A79744761414149675A524557
S31508003AA04959563479686A6F6C757154342B736E3C
S31508003AB06A2F7A516B7145716359682F444D627844
S31508003AC032674C4B44675A343D0D0A2D2D2D2D2D4A
S31508003AD0454E442043455254494649434154452D91
S31508003AE02D2D2D2D00000000417070576973756EDD
S31508003AF04576656E744D67724D757465780000007D
S31508003B005F6170705F776973756E5F6576656E74F1
S31508003B105F6D67725F6D747820213D20300000006C
S31508003B20443A5C496E6573685F776973756E5C576E
S31508003B306973756E5F4E6F64655F41707020315CA6
S31508003B40576973756E5F4E6F64655F4170705C6729
S31508003B5065636B6F5F73646B5F342E342E355C61FF
S31508003B6070705C776973756E5C636F6D706F6E6588
S31508003B706E745C6576656E745F6D616E616765729D
S31508003B805C736C5F776973756E5F6576656E745F77
S31508003B906D67722E630000005B556E6B6E6F776EF5
S31508003BA0206576656E743A2025645D0D0A0000006E
S31508003BB06F734D7574657841637175697265285FB1
S31508003BC06170705F776973756E5F6576656E745F31
S31508003BD06D67725F6D74782C203078464646464687
S31508003BE04646465529203D3D206F734F4B00000041
S31508003BF06F734D7574657852656C65617365285F7A
S31508003C006170705F776973756E5F6576656E745FF0
S31508003C106D67725F6D747829203D3D206F734F4B39
S31508003C2000000000E83A000801000000000000005B
S31508003C3000000000446973636F6E6E6563746564A3
S31508003C400000000053656C6563742050414E000007
S31508003C5041757468656E7469636174650000000077
S31508003C60416371756972652050414E20436F6E66D7
S31508003C7069670000436F6E66696775726520526FE3
S31508003C807574696E670000004F7065726174696FBC
S31508003C906E616C00253033642D253032643A253048
S31508003CA032643A25303264004576744E6F7469661C
S31508003CB0790000000200000005003C000100000039
S31508003CC005000F00010000007201000005003C001D
S31508003CD00100000005000F00010000003C0078000C
S31508003CE00000000000A3020080510100C20102008A
S31508003CF00300B400A401A4014A0101000400400025
S31508003D003C00040201000000020005000100010059
S31508003D100104050201000A0008000000B4000200C0
S31508003D2004011E00020000000F003C000100000014
S31508003D300F003C0001000000720100000F003C006B
S31508003D40010000000F003C00010000003C00780064
S31508003D500000000000A3020080510100C201030018
S31508003D601E00B400A401A4014A0101000400400099
S31508003D703C000402010000000200B4000A0004002E
S31508003D800104050201000A0008000000B400020050
S31508003D9004011E00020000003C00C00301000000F0
S31508003DA03C00C00301000000720100003C00C00393
S31508003DB0010000003C00C003010000003C00780040
S31508003DC00000000000A3020080510100C2010300A8
S31508003DD01E00B400A401D0024A01040040004000BD
S31508003DE03C000404010000003C00B4000A0008007E
S31508003DF0010405020100200008000000400202003C
S31508003E0004013C00020000007800000601000000E2
S31508003E107800000601000000720100007800000624
S31508003E200100000078000006010000003C00F000D8
S31508003E300000000000A3020080510100EE0203000A
S31508003E401E002C0158028403EE02040040004000C4
S31508003E503C000404010000003C00B4000A0008000D
S31508003E60010405020500280008000000D00202002F
S31508003E7008025A00343C000800000000443C0008D0
S31508003E8001000000503C000802000000603C0008E9
S31508003E9003000000743C000804000000883C000889
S31508003EA0050000000000000000000000A83C000813
S31508003EB0000000000000000000000000FFFFFFFFF8
S31508003EC000000000FFFFFFFFFFFFFFFFBCE6FAADA3
S31508003ED0A7179E84F3B9CAC2FC63255100000000E7
S31508003EE000000000000000000000000000000000C4
S31508003EF0880000000000000000000000000000002C
S31508003F0000000000000000000000000000000000A3
S31508003F10880000000000000000000000200000806B
S31508003F20000000000024000003000000FC00000060
S31508003F3000000000000000000000000020000080D3
S31508003F40000000000024000003000000F800000044
S31508003F500000000000000000000000001000000043
S31508003F60000000000000000103000000FA00000045
S31508003F700000000000000000000000002000000013
S31508003F80000000000000000203000000F700000027
S31508003F900000000000000000000000002000008073
S31508003FA0000000000044000203000000FE000000BC
S31508003FB00000000000000000000000002000008053
S31508003FC0000000000044000303000000FF0000009A
S31508003FD0000000000000000000000000544C532DB3
S31508003FE045434448452D45434453412D5749544874
S31508003FF02D4145532D3132382D4342432D534841E7
S3150800400000000000544C532D45434448452D454374
S315080040104453412D574954482D4145532D32353681
S315080040202D4342432D53484100000000544C532D64
S3150800403045434448452D45434453412D5749544823
S315080040402D4145532D3132382D4342432D53484196
S3150800405032353600544C532D45434448452D454387
S315080040604453412D574954482D4145532D32353631
S315080040702D43434D00000000544C532D45434448FE
S31508004080452D45434453412D574954482D414553E1
S315080040902D3235362D43434D2D380000544C532DC3
S315080040A045434448452D45434453412D57495448B3
S315080040B02D4145532D3132382D43434D0000000024
S315080040C0544C532D45434448452D45434453412DAF
S315080040D0574954482D4145532D3132382D43434DC8
S315080040E02D380000FFC000000000000009C00000D5
S315080040F0DC3F000805050400030303030AC00000AB
S3150800410004400008070504000303030323C0000056
S315080041102C4000080509040003030303ADC0000092
S31508004120544000082809040003030303AFC0000035
S31508004130784000082809040203030303ACC0000002
S315080041409C4000082609040003030303AEC00000D0
S31508004150C040000826090402030303030000000008
S3150800416092C5010800000000000000002B060105AA
S3150800417005070301000000002B06010505070302D9
S31508004180000000006D617374657220736563726563
S3150800419074000000636C69656E742066696E6973E5
S315080041A0686564007365727665722066696E697300
S315080041B0686564006B657920657870616E73696FF0
S315080041C06E0000002BC000002CC00000000000009C
S315080041D0170003120001000000000000050000009F
S315080041E00000000000C201000005000000100000E9
S315080041F000000000000000005B4661696C656420F1
S31508004200746F2063726561746520736F636B657480
S315080042103A20256C645D0A005B536F636B657420F6
S31508004220637265617465643A20256C645D0A0000F2
S315080042305B4661696C656420746F2062696E6420F0
S31508004240736F636B657420746F20706F72743A2095
S31508004250313233345D0A00005B536F636B6574203B
S31508004260626F756E6420746F20706F72743A2031B5
S315080042703233345D0A0000004661696C6564207457
S315080042806F20637265617465206576656E74206655
S315080042906C6167732E0A00005B4572726F723A2072
S315080042A04E756C6C20706F696E74657220706173E0
S315080042B073656420746F206372656174655F6275E7
S315080042C0666665725F7061636B65745D0A000000FF
S315080042D0443A5C496E6573685F776973756E5C57B7
S315080042E06973756E5F4E6F64655F41707020315CEF
S315080042F0576973756E5F4E6F64655F4170705C6772
S3150800430065636B6F5F73646B5F342E342E355C7533
S3150800431074696C5C74686972645F70617274795CE4
S315080043206D626564746C735C6C6962726172795CE7
S31508004330783530392E6300002B0601050507080479
S3150800434000000000443A5C496E6573685F776973DC
S31508004350756E5C576973756E5F4E6F64655F417005
S315080043607020315C576973756E5F4E6F64655F4187
S3150800437070705C6765636B6F5F73646B5F342E3454
S315080043802E355C7574696C5C74686972645F7061FB
S315080043907274795C6D626564746C735C6C69627264
S315080043A06172795C783530395F6372742E63000008
S315080043B0551D2000000000002D2D2D2D2D424547AE
S315080043C0494E2043455254494649434154452D2DAB
S315080043D02D2D2D002D2D2D2D2D454E442043455296
S315080043E054494649434154452D2D2D2D2D00000095
S315080043F0551D25000000000000070000FFFFFF0F05
S31508004400FC00000000080000000300000A0000008D
S315080044100C00000000000000BFB501083DB6010809
S3150800442049B601087FB6010895B60108693B010837
S315080044306D3B0108713B0108753B0108793B010892
S315080044400D3B0108373B01083F3B01084B3B010880
S31508004450453B010873C60108AFC60108D1C6010865
S31508004460E7C601080DC7010873656E64746F3A20C4
S31508004470696E76616C69642064657374696E6174CB
S31508004480696F6E206164647265737300696E657422
S315080044905F6E746F703A20756E737570706F727494
S315080044A0656420616464726573732066616D696C06
S315080044B07900000000000000000000000000000075
S315080044C000000000FFFFFFFFFFFFFFFF00000000E6
S315080044D098010000D83700206090A31AF26EEF0307
S315080044E0410821066310420AA518630EE7209412B4
S315080044F049A9B518AC39F72251CA3929D55EAC395C
S31508004500BDFB0F0041524D5F4C49425F5441534B2E
S315080045104C45545F494E49545F4556454E54000034
S3150800452041524D5F4C49425F4E574B5F494E544589
S3150800453052464143455F4556454E54004150504CFE
S3150800454049434154494F4E5F4556454E5400000075
S315080045504D41435F4C415945525F4556454E5400BF
S31508004560286F734576656E74466C61677353657418
S3150800457028736C695F776973756E5F7461736B5FB7
S31508004580666C6167732C202831362929202620304D
S3150800459078383030303030303029203D3D203000FA
S315080045A02F6D6E742F726169642F776F726B7370DB
S315080045B0616365732F77732E6136706A6B376A4E3F
S315080045C0642F6F7665726C61792F6773646B2F70D1
S315080045D0726F746F636F6C2F776973756E2F737450
S315080045E061636B2F7372632F736C695F7769737579
S315080045F06E5F7461736B2E6300000000286F73454D
S3150800460076656E74466C6167735761697428736C56
S31508004610695F776973756E5F7461736B5F666C61EA
S3150800462067732C202831292C2030783030303030F0
S31508004630303030552C203078464646464646464663
S31508004640552920262030783830303030303030291F
S31508004650203D3D2030000000286F734576656E7456
S31508004660466C61677353657428736C695F77697301
S31508004670756E5F7461736B5F666C6167732C202857
S315080046803229292026203078383030303030303002
S3150800469029203D3D20300000286F734576656E74ED
S315080046A0466C6167735761697428736C695F7769CB
S315080046B073756E5F7461736B5F666C6167732C20CC
S315080046C02834292C2030783030303030303030558E
S315080046D02C203078464646464646464655292026E4
S315080046E0203078383030303030303029203D3D2089
S315080046F030000000286F734576656E74466C6167F6
S315080047007353657428736C695F776973756E5F7424
S3150800471061736B5F666C6167732C202831292920C9
S3150800472026203078383030303030303029203D3D42
S31508004730203000006F7353656D6170686F72654154
S315080047406371756972652873656D6170686F7265E6
S315080047502C20307846464646464646465529203D4C
S315080047603D206F734F4B0000736C695F77697375F3
S315080047706E5F7461736B5F6576656E745F68616E94
S31508004780646C65725F69643A202564006E735F73B2
S31508004790775F6D61635F7068795F7374617469735D
S315080047A0746963735F73746172743A2025640000D8
S315080047B0286F734576656E74466C616773536574C6
S315080047C028736C695F776973756E5F7461736B5F65
S315080047D0666C6167732C20283429292026203078B6
S315080047E0383030303030303029203D3D2030000020
S315080047F060480008000000000000000000000000FB
S3150800480000000000D00700002200000000000000A1
S31508004810000000006C4800080000000000000000CE
S315080048200000000000000000D00700002000000083
S315080048300000000000000000736C695F77697375FB
S315080048406E5F7461736B5F6170695F6576656E74C0
S31508004850735F717565756520213D20300000000085
S3150800486057692D53554E205461736B0057692D5364
S31508004870554E204576656E74205461736B000000B2
S3150800488057692D53554E205461736B20466C6167EA
S315080048907300000057692D53554E205461736B20E1
S315080048A0415049204576656E747320517565756566
S315080048B000000000736C695F776973756E5F7461D9
S315080048C0736B5F6576656E745F68616E646C65723E
S315080048D03A202573202830782530347829000000BE
S315080048E0103A0020ECCD000800000000185E000019
S315080048F0753900008D3900008D3900008D390000AA
S315080049008D3900008D39000000000000000000000D
S3150800491000000000000000008D3900008D390000FD
S315080049208D390000093100008D390000BF320000C2
S31508004930CF32000099330000113400006F340000B4
S31508004940053600008F34000099360000E134000077
S3150800495041350000B9350000E9370000B9380000D4
S315080049608D3200008D2B0000E9250000652C000023
S31508004970ED2E00008D390000CF2F0000A12F00007A
S315080049808D3900008D390000093000008D3900008E
S315080049908D3900008D3900008D3900008D390000F1
S315080049A08D390000671400005D140000C0350C1036
S315080049B09E8DAF1B3813460D56488068000200D4FA
S315080049C0704780B58020800253490860CF2000F0E8
S315080049D0D1FA102051490968014003D0B849C86383
S315080049E00220086001BDF8B54D48816B4D4F802205
S315080049F092033A604C4E336840241D050BD41C4084
S31508004A002AD0012003F049FC002825D08020C005C3
S31508004A108E49086020E0130BA0250D4002D10068DE
S31508004A20C00601D53B6017E00A403FD18020884A7E
S31508004A301060884A1060194038D0364D287A4007E9
S31508004A4005D5012084490860000284490860287851
S31508004A50002801D0062801DB0020F2BD00F0E5FBA6
S31508004A60716889684E682978052907D1E105B96012
S31508004A706E60B668CC218901784A116000F0DEFBC9
S31508004A80012E00DA0226BC2080058E490860942093
S31508004A9080058D4908606E480021C943016471424A
S31508004AA041648021894A11600460D5E7A348036000
S31508004AB0FFF782FF0120F2BD18480168890504D571
S31508004AC0C06E0004000F022801D0002070470120A4
S31508004AD0704738B580245E48046000F0A6FB0500E0
S31508004AE09748006800F0CAF9280000F0A7FBFFF70E
S31508004AF063FF0848007A000705D5A0000949086041
S31508004B0000F07AFC31BD60038C4908608D4804606A
S31508004B1031BD0000245E00001C1002A8440002A853
S31508004B200C0002A8442002A8B05E0000FEB50400EE
S31508004B30854D8C2080016860012684480660FFF751
S31508004B40BBFF002826D08248007800287DD0310295
S31508004B500194052802D022460A4076D1CC22920139
S31508004B602A607C4A126881231B02134001D0032362
S31508004B7001E053075B0F0C01022804D1022B62D314
S31508004B80364804605CE04D01032804D1022B5AD94B
S31508004B9032480560F7BD042802D1114053D0F7BD4D
S31508004BA0052850D1019800284DD0C005C10F684688
S31508004BB041700198C004C10F6846017000F035FBCA
S31508004BC002906348406869464978002903D0066818
S31508004BD08021204A1160670499496A461278002A9A
S31508004BE00CD0C2680B68D21A964B1B683B4001D0A2
S31508004BF0066800E04668964200DD1600684640787A
S31508004C006A461278024308D008684242B01E8242B9
S31508004C1002DA7042886000E00026029800F00EFB77
S31508004C200198800501D59C4807600198054001D088
S31508004C309A480760002E06D0CC20800107490860F4
S31508004C40BA480460F7BDFFF744FFF7BD4C6201A8F8
S31508004C500CC001A890E001A8C4D000A8145001A86F
S31508004C6038B580248E480460012038490860384DDC
S31508004C702878052802D06000AD490860FFF71CFFB8
S31508004C80002812D02E480068000A80214140A868F2
S31508004C90000EC9B2814208D22E4800684007400F6C
S31508004CA0022802D2FFF715FF31BDA2480168C022CB
S31508004CB00A4002D1C06F204001D00448046031BDCB
S31508004CC0082002A808E001A808D001A894D001A8E5
S31508004CD00A0000D1704780B51822514340180C309D
S31508004CE04069002803D08021090300F005FA01BDB8
S31508004CF038B500F09AFA04008F480568A8688178E4
S31508004D002800FFF7E5FF6888012101436980022032
S31508004D108A4908608A490860200000F08FFA31BD88
S31508004D2010B500F082FA0400834800688168C978E3
S31508004D30FFF7CEFF200000F081FA10BD441002A84C
S31508004D4018C000A8100002A8106001A8C4E000A8B6
S31508004D50245E0000184001A8F1B582B00F00A0201B
S31508004D60384003D177480068C00603D58020800004
S31508004D70754962E000F059FA01906F480468F80234
S31508004D8004D5A0680069029000F0CFFB00F021FC72
S31508004D9080210903606800F0AFF926780020761CA8
S31508004DA06178B14200D200261821714365180C3586
S31508004DB029780829F3DA2670A5602978634A1170DC
S31508004DC0B9050FD500F031FA5B4909688968C968E1
S31508004DD0009100F033FAF80203D4009803218843BF
S31508004DE00090009859498860012738400DD15848E5
S31508004DF00299426B89180068081A56494018012812
S31508004E0003DB00F0EDFC01F031F9F904686900F004
S31508004E1073F93C2000F0AEF8F0B200F0ABF8608809
S31508004E204D4901406180019800F008FA3805464965
S31508004E3008604A4807603802494908600298FEBD7A
S31508004E4048C001A84C0002A810B54648006880056D
S31508004E5001D4FE2010BDC02080034349086000F03D
S31508004E60E4F9354909688A78D20702D589688C78C1
S31508004E7000E00C7800F0E2F9200010BD2E49096820
S31508004E808A688B78DB0704D5927818235A438A18E0
S31508004E900C329060704700004C1002A84C2002A803
S31508004EA094E001A8F1B582B0304F3C680026200F87
S31508004EB0000702D1E00102902AE001F0D7F800F0DD
S31508004EC0B4F9019080210903606800F015F9257886
S31508004ED06D1C6078A84200D20025E80020180C3026
S31508004EE0009000680290802109030098406800F04D
S31508004EF003F93D2000F03EF8E8B200F03BF82570D3
S31508004F000098A060019800F099F902A801F046F906
S31508004F1017480068800407D5F86901F06CFE029905
S31508004F200818029000D502960298FEBD685E000039
S31508004F30146001A814C001A8B45E0000284000A8A7
S31508004F40448001A80C0002A8442002A8245E0000A0
S31508004F509C5F00000010FFFFFEFF0000C0E000A8F5
S31508004F60106001A8440002A8441002A8B85E000018
S31508004F70FC0302A855490968002901D55449086067
S31508004F807047FEB5534A9268534C53006FD50127B4
S31508004F900125120100D521256A4610704F4A10686E
S31508004FA0566822689206920E94464A4A12689300F8
S31508004FB080221340624613433A021A4301926A4614
S31508004FC01278002A28D06A461278920601D501205E
S31508004FD006E0F022024005D10C220A4002D0022047
S31508004FE000F05FF83E49096EBC22920091420DD14D
S31508004FF03C490968C90309D536490A68520305D5E3
S315080050000968090701D4022600E0032648350199F4
S31508005010334A1268920003E00199314A926B1209E9
S3150800502040231A400A430107090F072900D0002721
S31508005030390008D0B10606D507218E432168C9056F
S31508005040490F31430E009900002E03D00B0033435D
S3150800505023660835002F06D0B30604D5330A02D0D6
S315080050600B43236608352266014321662566E06DF3
S315080050704407640F00F0C3F8A0070CD0052C0AD02B
S3150800508014488068000406D400F0CFF80221164AB6
S31508005090116000F0D3F800F0BBF8002000F001F82A
S315080050A0F7BD0E490A68F0239A43000110430860C9
S315080050B0C0B270478020C0020C490968890701D12F
S315080050C00B4900E00B49086070470000500002A831
S315080050D0884000A8480002A8284000A85C5F000095
S315080050E0184001A8B05E000024D50350844000A8EB
S315080050F0486000A8485000A880B55D4A116001F0D4
S31508005100A5FDFFF7D7FF01BDFEB500F08EF80290AA
S315080051105848C0684005C20DD52A01D2D52204E0F8
S31508005120D1204000824200D9020010000100524BF3
S3150800513001930023514C246864011DD5504C0094FA
S31508005140251D504E367806277E43AA530024019D16
S315080051502D7CE540ED070CD5009D06266643AD1966
S31508005160AD888FB2BD4200D2290086B2AE4200D2C7
S315080051702800641C022CEAD389B246310904424C41
S315080051800C404638C005C00D20433A490860C02087
S3150800519000063E4908603848017D00290CD03C4984
S315080051A0D52A02D98024E4050C60D1246400A242E1
S315080051B002D2802424060C6036490B6041880029F7
S315080051C000D10280029800F039F8F7BD80B5324860
S315080051D0324908603248C1680902090A192251434E
S315080051E0416005210160FFF78FFF01BD2C4800686B
S315080051F0C00300D4704780B5FFF786FF01BD802045
S31508005200C0021B490860274800684007FBD470475E
S315080052108020C00224490860704701E023490860DD
S31508005220234909680140F9D17047224800682021BE
S31508005230214A11601021214A11607047302101402E
S3150800524002D110201C49086070471A4800683021AE
S315080052500140102901D101207047002070471848E5
S3150800526001210160C1607047012016490860704736
S31508005270441002A87C400050685F0000E05E000011
S315080052805C5E0000585E00000000FF01A060005050
S31508005290A450005018E000E07F1A0601540002A846
S315080052A010E000E0440002A8442002A8282002A832
S315080052B0280002A8600002A8602002A8601002A8C0
S315080052C0789001A884A001A8FEB54D48802149021E
S315080052D0C16102214B4A516000214B4A11604B4A79
S315080052E011800321474A1160022101604848046879
S315080052F0002048490860202047490860802047491F
S315080053000860CC20800146490860012045490860AC
S315080053103D48806F01900F26000B304000904248B0
S315080053200068C505ED0D103DC0202843C0B2FFF743
S3150800533021FEE00504D50098092801D001F0DAFA23
S315080053400198064039480468032E04D0022E06D177
S315080053500098032831D000F0AFFA032E04D0009845
S3150800536006282AD1062D28D0314800680127C00B07
S31508005370384001D001F0AEFD2E480068000108D57E
S31508005380052D06D101252C4807606805FFF745FF5E
S3150800539000E000252100009800F0F2FA0400274EEC
S315080053A0002D05D000F0DEFC376002202449086095
S315080053B078057065800923490860124880214902EA
S315080053C001620099002908D10221416000200E4996
S315080053D00861C020C000124948642000FEBD80B59F
S315080053E0FFF70DFF18480078800602D402201749F7
S315080053F00860FFF70DFF01BD0220154908607047D8
S315080054002C1002A8282002A8380002A86C5E00000A
S31508005410B80002A8685E000094E001A80CC001A8C4
S31508005420146001A8C4E000A804ED00E0B44000A898
S3150800543000E200E0E05E0000645000A8646000A896
S315080054402C4000A880E200E0B05E0000081002A828
S31508005450082002A870B5714C714D802676019548D2
S315080054600068304005D06660062001F055FE6E6083
S3150800547004E06E60062001F04FFE66603D20A060E5
S31508005480702129600F222A602160A86070BDF8B5D6
S31508005490884C8025ED02884E6F097068384002D125
S315080054A06068800525D5FFF7C0FE84490D60FFF7C3
S315080054B0C5FE70688249014090204001084370602B
S315080054C0804881490860002060607068384002D1D1
S315080054D0F020800060607068074025D07B4800682F
S315080054E0C00721D57A48007880071DD401F01CFE34
S315080054F018E03068C00717D5FFF797FE6F490D60AB
