S0120000776973756E5F7263705F372E73333772
S3150800000000100020A9430408B34304081D1F020872
S31508000010B3430408B3430408B3430408B3430408CA
S31508000020B3430408B3430408B3430408ED4903087B
S31508000030B3430408B343040895490308FD1F02089F
S31508000040B3430408B3430408B3430408B34304089A
S31508000050B3430408B3430408B3430408B34304088A
S31508000060B3430408B3430408B34304081DB00208A5
S31508000070B3430408B3430408B3430408B34304086A
S31508000080B3430408B3430408B3430408B34304085A
S31508000090B3430408B3430408AFA60208B3430408ED
S315080000A0B3430408B3430408B3430408B34304083A
S315080000B0B3430408B3430408FBF803086F000408B5
S315080000C03F0004083D000408EDF903086D00040824
S315080000D0410004084500040843000408F500040824
S315080000E0B1000408B3430408B3430408B34304083F
S315080000F0B3430408B3430408B3430408B3430408EA
S31508000100B3430408B3430408B3430408B3430408D9
S31508000110B3430408B3430408B3430408B3430408C9
S31508000120B3430408B3430408B3430408B3430408B9
S31508000130B3430408B3430408B3430408B3430408A9
S31508000140B3430408B3430408B3430408B9F90108E0
S31508000150B3430408B3430408BD3B040871230408E9
S31508000160B3430408B3430408E13C0408E53C040827
S31508000170B3430408B3430408B3430408000000006B
S3150800018000F1000000000000000000000000000070
S315080001900000000000000000000000000000000051
S315080001A00000000000000000000000000000000041
S315080001B00000000000000000000000000000000031
S315080001C00000000000000000000000000000000021
S315080001D00000000000000000000000000000000011
S315080001E00000000000000000000000000000000001
S315080001F000000000000000000000000000000000F1
S3150800020000000000000000000000000000000000E0
S3150800021000000000000000000000000000000000D0
S3150800022000000000000000000000000000000000C0
S3150800023000000000000000000000000000000000B0
S3150800024000000000000000000000000000000000A0
S315080002500000000000000000000000000000000090
S315080002600000000000000000000000000000000080
S315080002700000000000000000000000000000000070
S315080002800000000000000000000000000000000060
S315080002900000000000000000000000000000000050
S315080002A00000000000000000756E737570706F72B4
S315080002B074656420666873732D64656661756C740D
S315080002C020776974682066666E2D756300000000E5
S315080002D01B5B33316D756E737570706F7274656400
S315080002E020666873732D64656661756C742077691A
S315080002F074682066666E2D75631B5B306D0A000098
S31508000300756E737570706F72746564206668737342
S315080003102D64656661756C742077697468206666F5
S315080003206E2D75630A000000756E737570706F72B6
S315080003307465642021666873732D64656661756CDF
S315080003407420776974682066666E2D626300000003
S315080003501B5B33316D756E737570706F727465647F
S315080003602021666873732D64656661756C742077E1
S315080003706974682066666E2D62631B5B306D0A00C1
S31508000380756E737570706F72746564202166687314
S31508000390732D64656661756C742077697468206668
S315080003A0666E2D62630A0000756E737570706F72E3
S315080003B074656420666873732D64656661756C740C
S315080003C02077697468206C666E2D756300000000DE
S315080003D01B5B33316D756E737570706F72746564FF
S315080003E020666873732D64656661756C7420776919
S315080003F07468206C666E2D75631B5B306D0A000091
S31508000400756E737570706F72746564206668737341
S315080004102D64656661756C742077697468206C66EE
S315080004206E2D75630A000000756E737570706F72B5
S315080004307465642021666873732D64656661756CDE
S31508000440742077697468206C666E2D6263000000FC
S315080004501B5B33316D756E737570706F727465647E
S315080004602021666873732D64656661756C742077E0
S31508000470697468206C666E2D62631B5B306D0A00BA
S31508000480756E737570706F72746564202166687313
S31508000490732D64656661756C742077697468206C61
S315080004A0666E2D62630A0000756E737570706F72E2
S315080004B07465642021666873732D64656661756C5E
S315080004C0742077697468206173796E630000000090
S315080004D01B5B33316D756E737570706F72746564FE
S315080004E02021666873732D64656661756C74207760
S315080004F0697468206173796E631B5B306D0A00004E
S31508000500756E737570706F72746564202166687392
S31508000510732D64656661756C7420776974682061EB
S3150800052073796E630A000000756E737570706F726A
S3150800053074656420666873732D64656661756C748A
S315080005402077697468206C666E2D70610000000063
S315080005501B5B33316D756E737570706F727465647D
S3150800056020666873732D64656661756C7420776997
S315080005707468206C666E2D70611B5B306D0A000016
S31508000580756E737570706F727465642066687373C0
S315080005902D64656661756C742077697468206C666D
S315080005A06E2D70610A00000021666873735F7469B6
S315080005B06D696E67732E6C6E645F74696D696E67BC
S315080005C05F696E666F2E646973636F766572795FAD
S315080005D0736C6F745F74696D655F6D7300000000FE
S315080005E01B5B33316D696E76616C6964206477656F
S315080005F06C6C20696E74657276616C1B5B306D0A73
S31508000600000000001B5B33316D696E76616C6964AE
S31508000610206C697374656E20696E74657276616C98
S315080006201B5B306D0A00000000000000000000009F
S3150800063000000000000000000000000000000000AC
S31508000640000000000000000000000000000000009C
S31508000650000000004145532D3132382D45434200F4
S315080006604145532D3139322D454342004145532DDD
S315080006703235362D454342004145532D3132382D0A
S31508000680434243004145532D3139322D43424300FD
S315080006904145532D3235362D434243004145532DAE
S315080006A03132382D43434D004145532D3139322DD2
S315080006B043434D004145532D3235362D43434D00B6
S315080006C04145532D3132382D43434D2A2D4E4F2D5A
S315080006D0544147004145532D3139322D43434D2A64
S315080006E02D4E4F2D544147004145532D3235362D59
S315080006F043434D2A2D4E4F2D544147004145532D16
S315080007003132382D4B5700004145532D3139322DA2
S315080007104B5700004145532D3235362D4B570000B7
S315080007204145532D3132382D4B5750004145532DF5
S315080007303139322D4B5750004145532D3235362D20
S315080007404B575000020000001D43040821430408CB
S31508000750354304083143040839430408534304085D
S315080007605406000810120200600600081013030061
S315080007706C0600081014040078060008902205008C
S3150800078084060008902306009006000890240700B7
S315080007900200000000000000000000006543040895
S315080007A065430408FD420408134304089C06000830
S315080007B070822605A806000870832705B406000877
S315080007C070842805C006000870922905D40600081A
S315080007D070932A05E806000870942B0502000000AD
S315080007E000000000000000008F4304089743040837
S315080007F06F43040885430408FC06000810C24E0827
S315080008000807000810C34F081407000810C450084A
S315080008102007000810D251082C07000810D35208E8
S315080008203807000810D453080200000060070008C3
S3150800083003000000680700080400000070070008AD
S315080008400500000078070008060000008007000879
S31508000850070000008807000826000000AC0700080B
S3150800086027000000B407000828000000BC0700089D
S3150800087029000000C40700082A000000CC07000869
S315080008802B000000D40700084E000000F8070008F7
S315080008904F00000000080008500000000808000883
S315080008A0510000001008000852000000180800084F
S315080008B053000000200800080000000000000000A7
S315080008C0433A5C55736572735C44454C4C5C53699A
S315080008D06D706C696369747953747564696F5C7655
S315080008E0355F776F726B73706163655C7769737573
S315080008F06E5F7263705F375C6765636B6F5F7364A7
S315080009006B5F342E342E335C7574696C5C7468695D
S3150800091072645F70617274795C6672656572746F11
S31508000920735C636D7369735C536F757263655C633F
S315080009306D7369735F6F73322E630000A0BB0D0081
S31508000940C07A1000001F408240420F00C07A100093
S3150800095020D613003A1F41A20000000020D613003B
S31508000960905817003A1F42A200000000905817003E
S3150800097040771B003A9F43B60000000040771B00F3
S3150800098070CE2000001F408180841E0070CE20009B
S3150800099040AC27003A1F41A10000000040AC2700E8
S315080009A0108A2E003A1F42A100000000108A2E006D
S315080009B080EE36003A9F43B50000000080EE360010
S315080009C0E09C4100001F408000093D00E09C41007A
S315080009D080584F003A1F41A00000000080584F0081
S315080009E020145D003A1F42A00000000020145D009C
S315080009F0C0047700009F43B4C0CF6A00C0047700E4
S31508000A00408995003A9F44B400000000408995004B
S31508000A10C00DB4003A9F45B400000000C00DB400F4
S31508000A2000BADB00009F66B4405DC60000BADB0072
S31508000A3080730601009F67B40024F40080730601E2
S31508000A4020992C01009F68A8C0EA210120992C0151
S31508000A50C0286B013A9F89B800000000C0286B01C6
S31508000A6060EDB501009F8AB880BA8C0160EDB501CA
S31508000A7080011302009FABB80048E8018001130209
S31508000A8080138D02009FCCA880D5430280138D0267
S31508000A90805A1303009FEDAC006CDC02805A1303E6
S31508000AA020289B03009FEEBC007E560320289B034C
S31508000AB0C0C95304009FEFBC0090D003C0C95304BB
S31508000AC000B4C404009FF0CC00B4C404433A5C5597
S31508000AD0736572735C44454C4C5C53696D706C6904
S31508000AE06369747953747564696F5C76355F776F7B
S31508000AF0726B73706163655C776973756E5F726339
S31508000B00705F375C6765636B6F5F73646B5F342E0A
S31508000B10342E335C706C6174666F726D5C656D6CD7
S31508000B2069625C696E635C656D5F6275732E6800E9
S31508000B30433A5C55736572735C44454C4C5C536927
S31508000B406D706C696369747953747564696F5C76E2
S31508000B50355F776F726B73706163655C7769737500
S31508000B606E5F7263705F375C6765636B6F5F736434
S31508000B706B5F342E342E335C706C6174666F726DE5
S31508000B805C656D6C69625C7372635C656D5F636DF1
S31508000B90752E6300433A5C55736572735C44454C25
S31508000BA04C5C53696D706C696369747953747564C8
S31508000BB0696F5C76355F776F726B73706163655CBE
S31508000BC0776973756E5F7263705F375C6765636BB1
S31508000BD06F5F73646B5F342E342E335C706C617494
S31508000BE0666F726D5C656D6C69625C7372635C6579
S31508000BF06D5F656D752E6300433A5C557365727358
S31508000C005C44454C4C5C53696D706C6963697479D6
S31508000C1053747564696F5C76355F776F726B737042
S31508000C206163655C776973756E5F7263705F375C65
S31508000C306765636B6F5F73646B5F342E342E335C4A
S31508000C40706C6174666F726D5C656D6C69625C73FD
S31508000C5072635C656D5F6575736172742E630000FF
S31508000C60433A5C55736572735C44454C4C5C5369F6
S31508000C706D706C696369747953747564696F5C76B1
S31508000C80355F776F726B73706163655C77697375CF
S31508000C906E5F7263705F375C6765636B6F5F736403
S31508000CA06B5F342E342E335C706C6174666F726DB4
S31508000CB05C656D6C69625C696E635C656D5F6770C7
S31508000CC0696F2E6800000000433A5C5573657273BD
S31508000CD05C44454C4C5C53696D706C696369747906
S31508000CE053747564696F5C76355F776F726B737072
S31508000CF06163655C776973756E5F7263705F375C95
S31508000D006765636B6F5F73646B5F342E342E335C79
S31508000D10706C6174666F726D5C656D6C69625C732C
S31508000D2072635C656D5F6770696F2E630000000013
S31508000D30433A5C55736572735C44454C4C5C536925
S31508000D406D706C696369747953747564696F5C76E0
S31508000D50355F776F726B73706163655C77697375FE
S31508000D606E5F7263705F375C6765636B6F5F736432
S31508000D706B5F342E342E335C706C6174666F726DE3
S31508000D805C656D6C69625C696E635C656D5F6275F6
S31508000D90732E6800433A5C55736572735C44454C20
S31508000DA04C5C53696D706C696369747953747564C6
S31508000DB0696F5C76355F776F726B73706163655CBC
S31508000DC0776973756E5F7263705F375C6765636BAF
S31508000DD06F5F73646B5F342E342E335C706C617492
S31508000DE0666F726D5C656D6C69625C7372635C6577
S31508000DF06D5F6C646D612E6300000000433A5C55BC
S31508000E00736572735C44454C4C5C53696D706C69D0
S31508000E106369747953747564696F5C76355F776F47
S31508000E20726B73706163655C776973756E5F726305
S31508000E30705F375C6765636B6F5F73646B5F342ED7
S31508000E40342E335C706C6174666F726D5C656D6CA4
S31508000E5069625C7372635C656D5F6D73632E6300B4
S31508000E60433A5C55736572735C44454C4C5C5369F4
S31508000E706D706C696369747953747564696F5C76AF
S31508000E80355F776F726B73706163655C77697375CD
S31508000E906E5F7263705F375C6765636B6F5F736401
S31508000EA06B5F342E342E335C706C6174666F726DB2
S31508000EB05C656D6C69625C7372635C656D5F7365B6
S31508000EC02E630000433A5C55736572735C44454C67
S31508000ED04C5C53696D706C69636974795374756495
S31508000EE0696F5C76355F776F726B73706163655C8B
S31508000EF0776973756E5F7263705F375C6765636B7E
S31508000F006F5F73646B5F342E342E335C7574696C53
S31508000F105C74686972645F70617274795C66726524
S31508000F206572746F735C6B65726E656C5C6576650D
S31508000F306E745F67726F7570732E63009D2F040859
S31508000F40A72F0408AB2F0408CD2F04082B3004085C
S31508000F50CF2F0408033004082C000000780038FF5F
S31508000F60FF00780012000000F0003516D962F9FF7C
S31508000F707D00AD092934FEFF5100F604F5B0FFFFE8
S31508000F803B001303342700002D00A002643B000039
S31508000F9022005C013A5E000022005F01745D0000D9
S31508000FA01000680005470000D2006DFFFF00D20060
S31508000FB028000000F000D30DCF5EF8FF6700740428
S31508000FC05E9BFEFF37002402CDC3FFFF21004A01C6
S31508000FD06D0F00001300CA00A02600000C007D005B
S31508000FE043290000070046007E22000004002A006C
S31508000FF06B1A00008200CAFEFF0082001C00000077
S31508001000F000E0082D3CFFFFA600E8065AF7FFFFB0
S315080010107800BA04888F000058007A03BBC4000021
S315080010203E0066024DD300002E00D00186CB00009C
S3150800103020004C012EB5000012005D001864000067
S3150800104014005CFEFF0014001C000000F000D2072C
S3150800105043120300A300B30682FD02007F00E204E8
S315080010601FB502005D007B03C05602004200BC02A9
S31508001070D80D02003100DE0169A3010022007A01C1
S315080010809067010014006500EF970000BAFF3EFE66
S31508001090FF00BAFF1E000000F0001F0854F8050004
S315080010A0A3009706D15005007A00A404504C04000A
S315080010B057004B036D6F03003D0059029CB70200B1
S315080010C02A00B8010A2902001E00310100A4010005
S315080010D012007E0025D60000000901F05C0F00080A
S315080010E0000901F0A80F0008000901F0F40F000834
S315080010F0000901F040100008000901F08C100008F2
S315080011000000000000000000433A5C5573657273E6
S315080011105C44454C4C5C53696D706C6963697479C1
S3150800112053747564696F5C76355F776F726B73702D
S315080011306163655C776973756E5F7263705F375C50
S315080011406765636B6F5F73646B5F342E342E335C35
S31508001150706C6174666F726D5C70657269706865D3
S3150800116072616C5C7372635C7065726970686572D3
S31508001170616C5F7379737274632E6300433A5C55CE
S31508001180736572735C44454C4C5C53696D706C694D
S315080011906369747953747564696F5C76355F776FC4
S315080011A0726B73706163655C776973756E5F726382
S315080011B0705F375C6765636B6F5F73646B5F342E54
S315080011C0342E335C7574696C5C74686972645F701C
S315080011D0617274795C6672656572746F735C6B654F
S315080011E0726E656C5C706F727461626C655C4941A5
S315080011F0525C41524D5F434D33335F4E545A5C6ED9
S315080012006F6E5F7365637572655C706F72742E635B
S3150800121000000000433A5C55736572735C44454CA4
S315080012204C5C53696D706C69636974795374756441
S31508001230696F5C76355F776F726B73706163655C37
S31508001240776973756E5F7263705F375C6765636B2A
S315080012506F5F73646B5F342E342E335C7574696C00
S315080012605C74686972645F70617274795C667265D1
S315080012706572746F735C6B65726E656C5C717565AF
S3150800128075652E630000000014290200003913005A
S315080012900000010002640001012F000007000000A1
S315080012A004919BA5B4000000A2A00000A2A0000023
S315080012B0204E0000609D0000609D00001027000081
S315080012C0F7750000F77500000B1A0000CD5E0000E8
S315080012D0CD5E000088130000544000005440000012
S315080012E0050D0000805F0000805F000010270000E9
S315080012F0713100007131000088130000BFE800005A
S31508001300BFE80000204E000039BA000039BA0000D4
S3150800131010270000477D0000477D00000B1A0000DB
S31508001320BEA70000BEA70000204E00007DA4000056
S315080013307DA400001027000001000000C01753021A
S31508001340040C0000E002000000003C030102050452
S31508001350980301020505F4030102060501000000D1
S31508001360C0175302050C00009E0100000000CC01C6
S3150800137001010505FA010101060528020101060613
S3150800138056020101070600000702010101000000DC
S315080013900712010101000000070301010100000016
S315080013A00713010101000000070501020100000002
S315080013B007150102010000000706010201000000EE
S315080013C007160102010000000708010301000000DA
S315080013D007180103010000000702011502000000BA
S315080013E0071201150200000007040116020000009A
S315080013F00714011602000000070501160200000086
S315080014000715011602000000070701170200000071
S31508001410071701170200000007080117020000005D
S315080014200718011702000000070101200300000049
S315080014300711012003000000070301210300000033
S31508001440071301210300000007050121030000001E
S31508001450071501210300000007010122030000000F
S3150800146007110122030000000703012303000000FF
S3150800147007130123030000000705012303000000EA
S3150800148007150123030000000701012403000000DB
S3150800149007110124030000000703012503000000CB
S315080014A007130125030000000705012503000000B6
S315080014B007150125030000000702010107000000C7
S315080014C007120101070000000703010107000000D9
S315080014D007130101070000000705010207000000C5
S315080014E007150102070000000706010207000000B1
S315080014F0071601020700000007080103070000009D
S31508001500071801030700000007010127050000006E
S315080015100711012705000000070301280500000040
S31508001520071301280500000007050128050000002B
S315080015300715012805000000070200010A0000003F
S31508001540070300010A000000070500020A00000060
S31508001550070600020A000000070800020A00000049
S31508001560070200010B000000070300010B00000042
S31508001570070500020B000000070600020B0000002A
S31508001580070800020B000000070200010C0000001B
S31508001590070300010C000000070500020C0000000C
S315080015A0070600020C000000070800020C000000F5
S315080015B0070100010D000000070300020D000000EE
S315080015C0070500020D000000070600030D000000D5
S315080015D0070800030D000000070200040D000000C4
S315080015E0070300040D000000070500050D000000B4
S315080015F0070600050D000000070800050D0000009D
S31508001600070200010E000000070300010E0000009B
S31508001610070500020E000000070600020E00000083
S31508001620070800020E000000070200010F00000074
S31508001630070300010F000000070500020F00000065
S31508001640070600020F000000070800020F0000004E
S31508001650070300010400000007050001040000005C
S31508001660070200020400000007030002040000004D
S315080016700705000304000000070600030400000035
S315080016800708000304000000070200040400000025
S315080016900703000404000000070500040400000016
S315080016A0070100010500000007030002050000000D
S315080016B007050002050000000702000106000000F9
S315080016C007030001060000000705000206000000E7
S315080016D007060002060000000708000206000000D0
S315080016E007020001080000000703000108000000C7
S315080016F007050002080000000706000208000000AF
S31508001700070800020800000007020001090000009F
S315080017100703000109000000070500020900000090
S315080017200706000209000000070800020900000079
S3150800173010000000A3703D00000000008812000899
S31508001740A8120008000000000800000000000000C1
S3150800175050C300000101F500031750070000000000
S315080017603813000800000000000000000000000018
S3150800177050C3000000000000000000000000000048
S3150800178010000000BEE22B000000000088120008CE
S31508001790B412000800000000080000000000000065
S315080017A0A08601000101F50003175007000000009C
S315080017B038130008000000000000000000000000C8
S315080017C0A0860100000000000000000000000000E4
S315080017D010000000333333000000000088120008B0
S315080017E0C012000800000000080000000000000009
S315080017F0F04902000101F500BD1B100700000000BA
S315080018003813000800000000000000000000000077
S31508001810F24902000000000000000000000000007D
S31508001820100000003333330000000000881200085F
S31508001830CC120008000000000800000000000000AC
S31508001840400D03000101F400772050070000000056
S315080018503813000800000000000000000000000027
S31508001860400D03000000000000000000000000001A
S3150800187010000000CCCC4C000000000088120008C4
S31508001880D812000800000000080000000000000050
S31508001890E09304000101F600522B500700000000F7
S315080018A038130008000000000000000000000000D7
S315080018B0E0930400000000000000000000000000A3
S315080018C010000000A3703D00000000008812000808
S315080018D0A812000800000000080000000000000030
S315080018E050C300000101F500211750070000000051
S315080018F03813000800000000000000000000000087
S3150800190050C30000000000000000000000000000B6
S3150800191010000000000040000000000088120008C7
S31508001920E4120008000000000800000000000000A3
S31508001930A08601000101F400952050070000000070
S315080019403813000800000000000000000000000036
S31508001950A086010000000000000000000000000052
S31508001960100000003333330000000000881200081E
S31508001970C012000800000000080000000000000077
S31508001980F04902000101F500DB1B1007000000000A
S3150800199038130008000000000000000000000000E6
S315080019A0F2490200000000000000000000000000EC
S315080019B01000000066666600000000008812000835
S315080019C0F0120008000000000800000000000000F7
S315080019D0400D03000101F4007D33500700000000AC
S315080019E03813000800000000000000000000000096
S315080019F0410D030000000000000000000000000088
S31508001A0010000000222222000000000088120008B0
S31508001A10FC1200080000000008000000000000009A
S31508001A2050C300000101F2000A125007000000002E
S31508001A303813000800000000000000000000000045
S31508001A4050C3000000000000000000000000000075
S31508001A5010000000BEE22B000000000088120008FB
S31508001A60B412000800000000080000000000000092
S31508001A70A08601000101F400C4165007000000000A
S31508001A8038130008000000000000000000000000F5
S31508001A90A086010000000000000000000000000011
S31508001AA010000000333333000000000088120008DD
S31508001AB0C012000800000000080000000000000036
S31508001AC0F04902000101F4007E1B10070000000027
S31508001AD038130008000000000000000000000000A5
S31508001AE0F2490200000000000000000000000000AB
S31508001AF010000000222222000000000088120008C0
S31508001B00FC120008000000000800000000000000A9
S31508001B1050C300000101F200161250070000000031
S31508001B203813000800000000000000000000000054
S31508001B3050C3000000000000000000000000000084
S31508001B4010000000BEE22B0000000000881200080A
S31508001B50B4120008000000000800000000000000A1
S31508001B60A08601000101F400D0165007000000000D
S31508001B703813000800000000000000000000000004
S31508001B80A086010000000000000000000000000020
S31508001B9010000000333333000000000088120008EC
S31508001BA0C012000800000000080000000000000045
S31508001BB0F04902000101F400891B1007000000002B
S31508001BC038130008000000000000000000000000B4
S31508001BD0F2490200000000000000000000000000BA
S31508001BE010000000222222000000000088120008CF
S31508001BF0FC120008000000000800000000000000B9
S31508001C0050C300000101F2000D1250070000000049
S31508001C103813000800000000000000000000000063
S31508001C2050C3000000000000000000000000000093
S31508001C3010000000BEE22B00000000008812000819
S31508001C40B4120008000000000800000000000000B0
S31508001C50A08601000101F400C71650070000000025
S31508001C603813000800000000000000000000000013
S31508001C70A08601000000000000000000000000002F
S31508001C8010000000333333000000000088120008FB
S31508001C90C012000800000000080000000000000054
S31508001CA0F04902000101F400811B10070000000042
S31508001CB038130008000000000000000000000000C3
S31508001CC0F2490200000000000000000000000000C9
S31508001CD010000000A3703D000000000088120008F4
S31508001CE0A81200080000000008000000000000001C
S31508001CF050C300000101F500181750070000000046
S31508001D003813000800000000000000000000000072
S31508001D1050C30000000000000000000000000000A2
S31508001D20100000003333330000000000881200085A
S31508001D30B4120008000000000800000000000000BF
S31508001D40A08601000101F5001817500700000000E1
S31508001D503813000800000000000000000000000022
S31508001D60A08601000000000000000000000000003E
S31508001D70100000003333330000000000881200080A
S31508001D80C012000800000000080000000000000063
S31508001D90F04902000101F500D21B100700000000FF
S31508001DA038130008000000000000000000000000D2
S31508001DB0F2490200000000000000000000000000D8
S31508001DC010000000333333000000000088120008BA
S31508001DD0CC12000800000000080000000000000007
S31508001DE0400D03000101F4008C205007000000009C
S31508001DF03813000800000000000000000000000082
S31508001E00400D030000000000000000000000000074
S31508001E1010000000A3703D000000000088120008B2
S31508001E20A8120008000000000800000000000000DA
S31508001E3050C300000101F5001F17500700000000FD
S31508001E403813000800000000000000000000000031
S31508001E5050C3000000000000000000000000000061
S31508001E601000000033333300000000008812000819
S31508001E70B41200080000000008000000000000007E
S31508001E80A08601000101F5001F1750070000000099
S31508001E9038130008000000000000000000000000E1
S31508001EA0A0860100000000000000000000000000FD
S31508001EB010000000333333000000000088120008C9
S31508001EC0C012000800000000080000000000000022
S31508001ED0F04902000101F500D91B100700000000B7
S31508001EE03813000800000000000000000000000091
S31508001EF0F249020000000000000000000000000097
S31508001F001000000033333300000000008812000878
S31508001F10CC120008000000000800000000000000C5
S31508001F20400D03000101F400932050070000000053
S31508001F303813000800000000000000000000000040
S31508001F40400D030000000000000000000000000033
S31508001F5010000000A3703D00000000008812000871
S31508001F60A812000800000000080000000000000099
S31508001F7050C300000101F5002017500700000000BB
S31508001F8038130008000000000000000000000000F0
S31508001F9050C3000000000000000000000000000020
S31508001FA010000000333333000000000088120008D8
S31508001FB0B41200080000000008000000000000003D
S31508001FC0A08601000101F500201750070000000057
S31508001FD038130008000000000000000000000000A0
S31508001FE0A0860100000000000000000000000000BC
S31508001FF01000000033333300000000008812000888
S31508002000C0120008000000000800000000000000E0
S31508002010F04902000101F500DA1B10070000000074
S31508002020381300080000000000000000000000004F
S31508002030F249020000000000000000000000000055
S315080020401000000033333300000000008812000837
S31508002050CC12000800000000080000000000000084
S31508002060400D03000101F400942050070000000011
S3150800207038130008000000000000000000000000FF
S31508002080400D0300000000000000000000000000F2
S31508002090100000002222220000000000881200081A
S315080020A0FC12000800000000080000000000000004
S315080020B050C300000101F2000F1250070000000093
S315080020C038130008000000000000000000000000AF
S315080020D050C30000000000000000000000000000DF
S315080020E010000000BEE22B00000000008812000865
S315080020F0B4120008000000000800000000000000FC
S31508002100A08601000101F400C9165007000000006E
S31508002110381300080000000000000000000000005E
S31508002120A08601000000000000000000000000007A
S315080021301000000033333300000000008812000846
S31508002140C01200080000000008000000000000009F
S31508002150F04902000101F400831B1007000000008B
S31508002160381300080000000000000000000000000E
S31508002170F249020000000000000000000000000014
S3150800218010000000333333000000000088120008F6
S31508002190CC12000800000000080000000000000043
S315080021A0400D03000101F3003D2050070000000028
S315080021B038130008000000000000000000000000BE
S315080021C0400D0300000000000000000000000000B1
S315080021D010000000CCCC4C0000000000881200085B
S315080021E0D8120008000000000800000000000000E7
S315080021F0E09304000101F500522B5007000000008F
S31508002200381300080000000000000000000000006D
S31508002210E093040000000000000000000000000039
S3150800222010000000AAAA2A00000000008812000870
S315080022300813000800000000080000000000000065
S31508002240A08601000101F000D221500BA01200085F
S315080022505C130008000000000000000000000000F9
S31508002260A086010000000000000000000000000039
S31508002270100000000000400000000000881200085E
S315080022801413000800000000080000000000000009
S31508002290F04902000101F200AA2A500BA012000818
S315080022A05C130008000000000000000000000000A9
S315080022B0F0490200000000000000000000000000D5
S315080022C010000000A8833A000000000088120008E9
S315080022D020130008000000000800000000000000AD
S315080022E050C300000101F4003D161007000000006D
S315080022F0381300080000000000000000000000007D
S3150800230050C30000000000000000000000000000AC
S3150800231010000000C1CB2900000000008812000848
S315080023202C13000800000000080000000000000050
S31508002330A08601000101F4003D1610070000000008
S31508002340381300080000000000000000000000002C
S31508002350A086010000000000000000000000000048
S31508002360100000000000300000000000881200087D
S315080023701413000800000000080000000000000018
S31508002380F04902000101F500F71A500700000000A5
S3150800239038130008000000000000000000000000DC
S315080023A0F0490200000000000000000000000000E4
S315080023B010000000333333000000000088120008C4
S315080023C0CC12000800000000080000000000000011
S315080023D0400D03000101F300B11F50070000000083
S315080023E0381300080000000000000000000000008C
S315080023F0400D03000000000000000000000000007F
S3150800240010000000000040000000000088120008CC
S31508002410D8120008000000000800000000000000B4
S31508002420E09304000101F500522B5007000000005C
S31508002430381300080000000000000000000000003B
S31508002440E093040000000000000000000000000007
S315080024501000000033333300000000008812000823
S31508002460B412000800000000080000000000000088
S31508002470A08601000101F5002117500700000000A1
S3150800248038130008000000000000000000000000EB
S31508002490A086010000000000000000000000000007
S315080024A010000000A3703D0000000000881200081C
S315080024B0A812000800000000080000000000000044
S315080024C050C300000101F5001B175007000000006B
S315080024D0381300080000000000000000000000009B
S315080024E050C30000000000000000000000000000CB
S315080024F01000000033333300000000008812000883
S31508002500B4120008000000000800000000000000E7
S31508002510A08601000101F5001B1750070000000006
S31508002520381300080000000000000000000000004A
S31508002530A086010000000000000000000000000066
S315080025401000000033333300000000008812000832
S31508002550C01200080000000008000000000000008B
S31508002560F04902000101F500D51B10070000000024
S3150800257038130008000000000000000000000000FA
S31508002580F249020000000000000000000000000000
S3150800259010000000333333000000000088120008E2
S315080025A0CC1200080000000008000000000000002F
S315080025B0400D03000101F4008F20500700000000C1
S315080025C038130008000000000000000000000000AA
S315080025D0400D03000000000000000000000000009D
S315080025E00C4002000CB11100004800002040020017
S315080025F0000000000000000030400300250800002D
S3150800260000010000FF000000404003004060000099
S3150800261000600000A0070000504001000B00000009
S315080026205C4002000F0D000001010000A8400100F7
S3150800263007000000BC400400000000000000000085
S3150800264000000000000000000841040001400000EE
S31508002650FF0C000001410000FF0D000020C0011022
S3150800266000F8070020C00130FE01280024C0011030
S31508002670FF00000024C001300013000028C0080035
S31508002680EC80B30343754051A00F00B830400000FA
S31508002690A8AA0700000000000000000000000000D3
S315080026A054C001008721300070C00D00BA10000028
S315080026B000003F008D00EE00F601AC03F504960716
S315080026C0DE099C0DC3119317FE1DF526BD32FF3F8B
S315080026D0FE15F81BDC23B42DD039FF3FFF3F000061
S315080026E0A8C00500BD4B721511A318051032547603
S315080026F0980A000000000000D0C003000000000097
S3150800270001000A0001002800080001010E17000058
S3150800271018000101FFFFFFFF200001012083B8ED2B
S3150800272044400401000000001000000000000004FE
S315080027302FC2820058400401000000000000000378
S315080027400000002000000000904012010000000078
S315080027500000000A4A54545400000000000000001B
S31508002760000000000000000000000000000000005B
S31508002770000000000000000000000000000000004B
S31508002780000000000000000000000000000000003B
S3150800279000000000E0400111F8010000E0400131AE
S315080027A00102000010410201331E0500000000006E
S315080027B02041070100000000FF0483078813C83A78
S315080027C0FF06660CFF0483078813FF03BC200AF084
S315080027D04C4102018B3B4000C00300805841020176
S315080027E000000000FFFD0000644101010C0100002B
S315080027F06C410B01000000400000000000000000D2
S3150800280000000000000000000000000001010000B8
S3150800281000000000000000000000000000000000AA
S31508002820A44102010000000000000000B0410901B7
S315080028300000000068D52FC000000000000000005E
S3150800284000003C00AAAA06000000000000000000E4
S3150800285055555555DC410101000000001C42020196
S31508002860000000800000000028420401000000006B
S315080028706018004000000000000000003C42010112
S31508002880000000004442020114000000000000009D
S3150800289030430F0100000000000000000020000087
S315080028A0000000000000000000000000000000001A
S315080028B0000000000000000000000000000000000A
S315080028C00000003800000000000000000000FF586B
S315080028D010800101030000003C8001010300000094
S315080028E09C8002010000000070B8030098000302F3
S315080028F000000000000C00044C040000D80002028E
S31508002900050040AA88010000EC000112E00F000053
S31508002910EC0001320D205151F00001022B05000098
S31508002920000101021001000004010112000000006C
S3150800293004010132100100001001011200FF0F000E
S3150800294010010132020000422C01011200FC1F0096
S315080029502C010132A9008000400101023F0000005D
S3150800296068010102000006007801011200001C003F
S31508002970780101324004E0CF8C010102000000001A
S31508002980AC010112F8010000AC0101320402010099
S31508002990B0010102000000004060080300000008C2
S315080029A0001000010020200000020800004001007D
S315080029B0400002000004800010000400FFFFFFFF33
S315080029C00C4002000CB11100004800002040020033
S315080029D00000000000000000304003002508000049
S315080029E000010000FF0000004040030040600000B6
S315080029F000600000A0070000504001000B00000026
S31508002A005C4002000F0D000001010000A840010013
S31508002A1007000000BC4004000000000000000000A1
S31508002A20000000000000000008410400014000000A
S31508002A30FF0C000001410000FF0D000020C001103E
S31508002A4000F8070020C00130FE01280024C001104C
S31508002A50FF00000024C001300013000028C0080051
S31508002A60EC80B30343754051A00F00B83040000016
S31508002A70A8AA0700000000000000000000000000EF
S31508002A8054C001008721300068C00F0088C60200C4
S31508002A90A0040000BA10000000003F008D00EE0000
S31508002AA0F601AC03F5049607DE099C0DC3119317CE
S31508002AB0FE1DF526BD32FF3FFE15F81BDC23B42D9F
S31508002AC0D039FF3FFF3F0000A8C00500BD4B721577
S31508002AD011A3180510325476980A00000000000069
S31508002AE0D0C003000000000001000A000100280011
S31508002AF0080001010E17000018000101FFFFFFFF83
S31508002B00200001012083B8ED4440040100000000C4
S31508002B1010000000000000042FC282005840040183
S31508002B200000000000000003000000200000000074
S31508002B3090401201000000000000000A4A54545454
S31508002B400000000000000000000000000000000077
S31508002B500000000000000000000000000000000067
S31508002B600000000000000000000000000000000057
S31508002B70000000000000000000000000E040011115
S31508002B80F8010000E0400131010200001041020195
S31508002B90331E050000000000204107010000000068
S31508002BA0FF0483078813C83AFF06660CFF048307E9
S31508002BB08813FF03BC200AF04C4102018B3B4000FE
S31508002BC0C00300805841020100000000FFFD00001C
S31508002BD0644101010C0100006C410B01000000403A
S31508002BE000000000000000000000000000000000D7
S31508002BF000000000010100000000000000000000C5
S31508002C000000000000000000A441020100000000CE
S31508002C1000000000B041010100000000B8410701B2
S31508002C20000000000000000000003C00AAAA060000
S31508002C30000000000000000055555555DC41010113
S31508002C40000000001C420201000000800000000095
S31508002C50284204010000000060180040000000003F
S31508002C60000000003C42010100000000444202014D
S31508002C70140000000000000030430F0100000000AF
S31508002C800000000000200000000000000000000016
S31508002C900000000000000000000000000000000026
S31508002CA000000000000000000000003800000000DE
S31508002CB0000000000000FF5810800101030000001A
S31508002CC03C800101030000009C8003010000000015
S31508002CD070B8030070B80300A8800111F60100005F
S31508002CE0A880013101420101AC800111F601000002
S31508002CF0AC80013101420101B080020100030002EB
S31508002D00000300029800030200000000000C000403
S31508002D104C040000D8000202050040AA8801000001
S31508002D20EC000112E00F0000EC0001320D205151B9
S31508002D30F00001022B05000000010102100100004D
S31508002D400401011200000000040101321001000014
S31508002D501001011200FF0F001001013202000042AB
S31508002D602C01011200FC1F002C010132A900800071
S31508002D70400101023F00000068010202000006004F
S31508002D8000200600740101026901100C7801011285
S31508002D9000001C00780101324004E0CF80010112D6
S31508002DA0790700008001013206000000880102024E
S31508002DB09000000000000000AC010112F8010000BC
S31508002DC0AC01013204020100B0010102000000005A
S31508002DD040600803000000080010000100202000E1
S31508002DE000020800004001004000020000048000C4
S31508002DF010000400FFFFFFFF0C4002000CB1110099
S31508002E00004800002040020000000000000000000A
S31508002E10304007002508000000010000FF00000000
S31508002E20410301004060000000600000A0070000A8
S31508002E30504001000B0000005C4002000F0D00002E
S31508002E4001010000A840010007000000BC40040082
S31508002E500000000000000000000000000000000064
S31508002E600841040001400000FF0C00000141000079
S31508002E70FF0D000020C0011000F8070020C0013037
S31508002E80FE01280024C00110FF00000024C0013004
S31508002E900013000028C00800EC80B30343754051B6
S31508002EA0A00F00B830400000A8AA070000000000E4
S31508002EB0000000000000000054C014008721300004
S31508002EC085007CE68F010000496471787C0000006B
S31508002ED088C60200A0040000BA10000000003F00E7
S31508002EE08D00EE00F601AC03F5049607DE099C0D8D
S31508002EF0C3119317FE1DF526BD32FF3FFE15F81BBD
S31508002F00DC23B42DD039FF3FFF3F0000A8C00500E1
S31508002F10BD4B721511A3180510325476980A000095
S31508002F2000000000CCC00400FE0100000000000004
S31508002F3001000A0001002800080001010E17000020
S31508002F4018000101FFFFFFFF200001012083B8EDF3
S31508002F50404026010000502100000000100000003B
S31508002F60000000042FC282000000002000000000BC
S31508002F70000000030000002000000000BD60FE0005
S31508002F80400C00004A0000001200200009720000F0
S31508002F9009720000430F00000000000090032B0098
S31508002FA000000662000000000000000A4A5454545B
S31508002FB00000000000000000000000000000000003
S31508002FC000000000000000000000000000000000F3
S31508002FD000000000000000000000000000000000E3
S31508002FE0000000000000000000000000E0400111A1
S31508002FF0F8010000E0400131010200001041020121
S31508003000331E0500000000001C410E010000808EE2
S3150800301000000000FF0483078813C83AFF06660C01
S31508003020FF0483078813FF03BC200AF02B7B50009C
S315080030300375B14000004E90B7D5E9418B3B40007F
S31508003040C00300805841020100000000FFFD000097
S31508003050644101010C0100006C410B0100000040B5
S315080030600000000000000000000000000000000052
S315080030700000000001010000000000000000000040
S315080030800000000000000000A4410201000000004A
S3150800309000000000B0410C010000000068D52FC0F8
S315080030A0000000000000000000003C00AAAA06007C
S315080030B0000000000000000055555555E781BB800B
S315080030C00600020000000000E4411501E6E7FF0BD8
S315080030D0CDA10A00BD066A005EB04D007D02420E13
S315080030E0A5B62202FF25B2341DACF10E74390C00C8
S315080030F0B080760089DCB300933C6400C689C704B7
S315080031008F1A651D000000800000000058000000AE
S3150800311000000000601800400000000000000000E9
S315080031203C42010100000000444203011400000073
S315080031300000000008000504544201018D0000004B
S3150800314030430F01000000000000000000200000CE
S315080031500000000000000000000000000000000061
S315080031600000000000000000000000000000000051
S315080031700000003800000000000000000000FF58B2
S3150800318010800101030000003880020118171000A2
S31508003190030000009C8003010000000070B80300D3
S315080031A070B80300A8800111F6010000A88001315B
S315080031B001420101AC800111F6010000AC80013129
S315080031C001420101B080020100030002000300026F
S315080031D09800030200000000000C00044C040000E4
S315080031E0D8000202050040AA88010000EC0001127E
S315080031F0E00F0000EC0001320D205151F0000102F1
S315080032002B05000000010102100100000401011253
S315080032100000000004010132100100001001011233
S3150800322000FF0F0010010132020000422C010112BA
S3150800323000FC1F002C010132A90080004001010298
S315080032403F0000005001011200C000005001013289
S315080032506200510068010202000006000020060014
S31508003260740101026901100C7801011200001C00AA
S31508003270780101324004E0CF80010112790700008D
S315080032808001013206000000880102029000000059
S3150800329000000000AC010112F8010000AC01013287
S315080032A004020100B00101020000000040600803AA
S315080032B0000000080010000100202000000208009D
S315080032C000400100400002000004800010000400D5
S315080032D0FC7F0103D01C0008FFFFFFFF0C40020023
S315080032E00CB1110000480000204002000000000058
S315080032F0000000003040070025080000000100001B
S31508003300FF0000004103010040600000006000006B
S31508003310A0070000504001000B0000005C400200BE
S315080033200F0D000001010000A84001000700000081
S31508003330BC4004000000000000000000000000007F
S31508003340000000000841040001400000FF0C0000D6
S3150800335001410000FF0D000020C0011000F8070021
S3150800336020C00130FE01280024C00110FF00000023
S3150800337024C001300013000028C00800EC80B30305
S3150800338043754051A00F00B830400000A8AA0700B6
S3150800339000000000000000000000000054C01400F7
S315080033A08721300085007CE68F010000496471782A
S315080033B07C00000088C60200A0040000BA100000C5
S315080033C000003F008D00EE00F601AC03F5049607F9
S315080033D0DE099C0DC3119317FE1DF526BD32FF3F6E
S315080033E0FE15F81BDC23B42DD039FF3FFF3F000044
S315080033F0A8C00500BD4B721511A3180510325476E6
S31508003400980A000000000000CCC00400FE0100007D
S315080034100000000001000A00010028000800010160
S315080034200E17000018000101FFFFFFFF2000010131
S315080034302083B8ED4040260100005021000000001E
S3150800344010000000000000042FC2820000000020C7
S31508003450000000000000000300000020000000003B
S31508003460FD2FFC00400800004A0000001200200062
S3150800347009720000097200003C0F000000000000FD
S3150800348090031A0000000762000000000000000A0E
S315080034904A545454000000000000000000000000D8
S315080034A0000000000000000000000000000000000E
S315080034B000000000000000000000000000000000FE
S315080034C000000000000000000000000000000000EE
S315080034D0E0400111F8010000E0400131010200005E
S315080034E010410201331E0500000000001C410E01B8
S315080034F00000E08C00000000FF0483078813C83A28
S31508003500FF06660CFF0483078813FF03BC200AF036
S315080035102B7B50000167A94000004E90B1F448414A
S315080035208B3B4000C00300805841020100000000A8
S31508003530FFFD0000644101010C0100006C410B0114
S31508003540000000400000000000000000000000002D
S31508003550000000000000000001010000000000005B
S31508003560000000000000000000000000A441020165
S315080035700000000000000000B0410C01000000003F
S3150800358068D52FC0000000000000000000003C00C5
S31508003590AAAA06000000000000000000555555556F
S315080035A0E780BB800400020000000000E44115012A
S315080035B0E6E7FF0BCDA10A00BD066A005EB04D0026
S315080035C07D02420EA5B62202FF25B234FFAB000AE1
S315080035D05CF10F00D341020095EDB100197BD80FBD
S315080035E01208B904EA1B6D1F0000008000000000E5
S315080035F058000000000000006018004000000000AD
S31508003600000000003C4201010000000044420301A2
S3150800361014000000000000000800030454420101E1
S315080036208D00000030430F0100000000000000007C
S31508003630002000000000000000000000000000005C
S31508003640000000000000000000000000000000006C
S315080036500000000000000038000000000000000024
S315080036600000FF58108001010300000038800201A5
S3150800367018171000030000009C80030100000000DA
S3150800368070B8030070B80300A8800111F6010000A5
S31508003690A880013101420101AC800111F601000048
S315080036A0AC80013101420101B08002010003000231
S315080036B0000300029800030200000000000C00044A
S315080036C04C040000D8000202050040AA8801000048
S315080036D0EC000112E00F0000EC0001320D20515100
S315080036E0F00001022B050000000101021001000094
S315080036F0040101120000000004010132100100005B
S315080037001001011200FF0F001001013202000042F1
S315080037102C01011200FC1F002C010132A9008000B7
S31508003720400101023F0000005001011200C00000E4
S3150800373050010132620051006801020200000600D1
S3150800374000200600740101026901100C78010112BB
S3150800375000001C00780101324004E0CF800101120C
S315080037607907000080010132060000008801020284
S315080037709000000000000000AC010112F8010000F2
S31508003780AC01013204020100B00101020000000090
S315080037904060080300000008001000010020200017
S315080037A000020800004001004000020000048000FA
S315080037B010000400FC7F0103201D0008FFFFFFFF27
S315080037C00C4002000CB11100004800002040020025
S315080037D00000000000000000304007002508000037
S315080037E000010000FF0000004103010040600000E6
S315080037F000600000A0070000504001000B00000018
S315080038005C4002000F0D000001010000A840010005
S3150800381007000000BC400400000000000000000093
S3150800382000000000000000000841040001400000FC
S31508003830FF0C000001410000FF0D000020C0011030
S3150800384000F8070020C00130FE01280024C001103E
S31508003850FF00000024C001300013000028C0080043
S31508003860EC80B30343754051A00F00B83040000008
S31508003870A8AA0700000000000000000000000000E1
S3150800388054C01400872130006E0066E64A01000025
S315080038903D535E636600000088C60200A00400006F
S315080038A0BA10000000003F008D00EE00F601AC03E0
S315080038B0F5049607DE099C0DC3119317FE1DF52620
S315080038C0BD32FF3FFE15F81BDC23B42DD039FF3F70
S315080038D0FF3F0000A8C00500BD4B721511A31805CF
S315080038E010325476980A000000000000CCC004008C
S315080038F0EE0000000000000001000A000100280098
S31508003900080001010E17000018000101FFFFFFFF64
S31508003910200001012083B8ED4040260100007021F7
S315080039200000000010000000000000042FC2820002
S315080039300000000000000000000000030000002056
S31508003940000000003F20FE0040080000480000007C
S31508003950120030000972000009720000501F0000B2
S3150800396000000000B2030800000006620000000024
S315080039700000000A4A5454540000000000000000E9
S315080039800000000000000000000000000000000029
S315080039900000000000000000000000000000000019
S315080039A00000000000000000000000000000000009
S315080039B000000000E0400111F8010000E04001317C
S315080039C00102000010410201331E0500000000003C
S315080039D01C410E010050558C00000000FF048307AF
S315080039E08813C83AFF06660CFF0483078813FF038B
S315080039F0BC200AF0486F50000169A74000004E90AD
S31508003A00ADA948418B3B4000C003008058410201E4
S31508003A1000000000FFFD0000644101010C010000E8
S31508003A206C410B010000004000000000000000008F
S31508003A300000000000000000000000000101000076
S31508003A400000000000000000000000000000000068
S31508003A50A44102010000000000000000B0410C0172
S31508003A600000000068D52FC000000000000000001C
S31508003A7000003C00AAAA06000000000000000000A2
S31508003A8055555555E780BB8004000200000000002C
S31508003A90E4411501F907E111CCE90500328E6C0005
S31508003AA032B14E0082011C0E74F765029B25503315
S31508003AB0EA6B8F00B3000E00773A0E002FBFBB00EB
S31508003AC015BA4C0F2206A704981DF921000000809C
S31508003AD000000000780000000000000060180040A8
S31508003AE000000000000000003C4201010000000048
S31508003AF0444203011400000000000000080003040B
S31508003B00544201018D00000030430F0100000000FF
S31508003B100000000000200000000000000000000077
S31508003B200000000000000000000000000000000087
S31508003B30000000000000000000000038000000003F
S31508003B40000000000000FF5810800101030000007B
S31508003B5038800201D21B1000030000009C8003017C
S31508003B600000000070B8030070B80300A8800111B7
S31508003B70F6010000A880013101420101AC80011163
S31508003B80F6010000AC80013101420101B08002015A
S31508003B900003000200030002980003020000000070
S31508003BA0000C00044C040000D8000202050040AADC
S31508003BB088010000EC000112E00F0000EC00013261
S31508003BC00D205151F00001022B05000000010102F1
S31508003BD01001000004010112000000000401013276
S31508003BE0100100001001011200FF0F001001013240
S31508003BF0020000422C01011200FC1F002C010132B8
S31508003C00A9008000400101023F0000005001011296
S31508003C1000C0000050010132630051006801020231
S31508003C200000060000200600740101026901100C5C
S31508003C307801011200001C00780101324004E0CF2F
S31508003C408001011279070000800101320600000098
S31508003C50880102029000000000000000AC01011279
S31508003C60F8010000AC01013204020100B0010102B2
S31508003C700000000040600803000000080010000172
S31508003C800020200000020800004001004000020059
S31508003C900004800010000400FC7F0103701D00086A
S31508003CA0FFFFFFFF0C4002000CB1110000480000A6
S31508003CB0204002000000000000000000304007001D
S31508003CC02508000000010000FF0000004103010074
S31508003CD04060000000600000A0070000504001009E
S31508003CE00B0000005C4002000F0D000001010000FF
S31508003CF0A840010007000000BC40040000000000C6
S31508003D000000000000000000000000000841040058
S31508003D1001400000FF0C000001410000FF0D0000FB
S31508003D2020C0011000F8070020C00130FE0128005D
S31508003D3024C00110FF00000024C001300013000059
S31508003D4028C00800EC80B30343754051A00F00B8A3
S31508003D5030400000A8AA070000000000000000008C
S31508003D600000000054C01400872130005E0057E6AA
S31508003D701A010000344750555700000088C6020053
S31508003D80C0040000BA10000000003F008D00EE00DD
S31508003D90F601AC03F5049607DE099C0DC3119317CB
S31508003DA0FE1DF526BD32FF3FFE15F81BDC23B42D9C
S31508003DB0D039FF3FFF3F0000A8C00500BD4B721574
S31508003DC011A3180510325476980A00000000000066
S31508003DD0CCC00400EE0000000000000001000A004C
S31508003DE001002800080001010E1700001800010153
S31508003DF0FFFFFFFF200001012083B8ED40402601A8
S31508003E00000050310000000010000000000000040F
S31508003E102FC28200000000200000000000000003FE
S31508003E2000000020000000009D17F8004008000070
S31508003E302A00000012003000097200000972000012
S31508003E40641F000000000000B0032A00000006629C
S31508003E50000000000000000A4A5454540000000004
S31508003E600000000000000000000000000000000044
S31508003E700000000000000000000000000000000034
S31508003E800000000000000000000000000000000024
S31508003E900000000000000000E0400111F8010000E9
S31508003EA0E04001310102000010410201331E050005
S31508003EB0000000001C410E010000108C00000000EC
S31508003EC0FF0483078813C83AFF06660CFF048307B6
S31508003ED08813FF03BC200AF095AD50000165A84081
S31508003EE000004E90AB8448418B3B4000C0030080E5
S31508003EF05841020100000000FFFD00006441010175
S31508003F000C0100006C410B0100000040000000009D
S31508003F100000000000000000000000000000000093
S31508003F200101000000000000000000000000000081
S31508003F3000000000A441020100000000000000008B
S31508003F40B0410C010000000068D52FC00000000039
S31508003F500000000000003C00AAAA060000000000BD
S31508003F600000000055555555E780BB800400020047
S31508003F7000000000E4411501F907E111CCE905004C
S31508003F80328E6C0032B14E0082011C0E74F7650247
S31508003F909B255033DE635E36BF6F07006FEA160057
S31508003FA0E530CE00B2B9D90E4B8494045A1FA92421
S31508003FB000000080000000007800000000000000FB
S31508003FC06018004000000000000000003C420101AB
S31508003FD00000000044420301140000000000000035
S31508003FE008000304544201018A00000030430F010F
S31508003FF00000000000000000002000000000000093
S3150800400000000000000000000000000000000000A2
S31508004010000000000000000000000000000000385A
S3150800402000000000000000000000FF581080010199
S3150800403003000000388002018C20100003000000F5
S315080040409C8003010000000070B8030070B80300EC
S31508004050A8800111F6010000A88001310142010182
S31508004060AC800111F6010000AC800131014201016A
S31508004070B080020100030002000300029800030258
S3150800408000000000000C00044C040000D8000202E6
S31508004090050040AA88010000EC000112E00F0000AC
S315080040A0EC0001320D205151F00001022B050000F1
S315080040B000010102100100000401011200000000C5
S315080040C004010132100100001001011200FF0F0067
S315080040D010010132020000422C01011200FC1F00EF
S315080040E02C010132A9008000400101023F000000B6
S315080040F05001011200C00000500101326300510056
S315080041006801020200000600002006007401010290
S315080041106901100C7801011200001C0078010132B7
S315080041204004E0CF800101127907000080010132C6
S31508004130060000008801020290000000000000004E
S31508004140AC010112F8010000AC01013204020100C1
S31508004150B0010102000000004060080300000008EA
S3150800416000100001002020000002080000400100A5
S31508004170400002000004800010000400FC7F0103D8
S31508004180C01D0008FFFFFFFF0C4002000CB1110024
S315080041900048000020400200000000000000000067
S315080041A0304007002508000000010000FF0000005D
S315080041B0410301004060000000600000A007000005
S315080041C0504001000B0000005C4002000F0D00008B
S315080041D001010000A840010007000000BC400400DF
S315080041E000000000000000000000000000000000C1
S315080041F00841040001400000FF0C000001410000D6
S31508004200FF0D000020C0011000F8070020C0013093
S31508004210FE01280024C00110FF00000024C0013060
S315080042200013000028C00800EC80B3034375405112
S31508004230A00F00B830400000A8AA07000000000040
S31508004240000000000000000054C014008721300060
S31508004250470042E6D500000027353C4042000000F2
S3150800426088C60200C0040000BA10000000003F0023
S315080042708D00EE00F601AC03F5049607DE099C0DE9
S31508004280C3119317FE1DF526BD32FF3FFE15F81B19
S31508004290DC23B42DD039FF3FFF3F0000A8C005003E
S315080042A0BD4B721511A3180510325476980A0000F2
S315080042B000000000CCC00400EE0000000000000072
S315080042C001000A0001002800080001010E1700007D
S315080042D018000101FFFFFFFF200001012083B8ED50
S315080042E0404026010000F0400000000010000000D9
S315080042F0000000042FC28200000000200000000019
S31508004300000000030000002000000000FF0FFC0072
S31508004310400800001A000000120060000972000040
S3150800432009720000644F000000000000B2032A0072
S3150800433000000662000000000000000A4A545454B7
S31508004340000000000000000000000000000000005F
S31508004350000000000000000000000000000000004F
S31508004360000000000000000000000000000000003F
S31508004370000000000000000000000000E0400111FD
S31508004380F8010000E040013101020000104102017D
S31508004390331E0500000000001C410E010000108CB1
S315080043A000000000FF0483078813C83AFF06660C5E
S315080043B0FF0483078813FF03BC200AF00BE75000AD
S315080043C00165A84000004E90AC5E48418B3B40001A
S315080043D0C00300805841020100000000FFFD0000F4
S315080043E0644101010C0100006C410B010000004012
S315080043F000000000000000000000000000000000AF
S31508004400000000000101000000000000000000009C
S315080044100000000000000000A441020100000000A6
S3150800442000000000B0410C010000000068D52FC054
S31508004430000000000000000000003C00AAAA0600D8
S31508004440000000000000000055555555E780BB8068
S315080044500400020000000000E44115011D8C9215BD
S3150800446038113C00B4CD7500AC1248006FFFE30D5F
S315080044704039ED0218251231DE635E36BF6F07003C
S315080044806FEA1600E530CE00B2B9D90E4B84940413
S315080044905A1FA9240000008000000000D800000070
S315080044A00000000060180040000000000000000046
S315080044B03C420101000000004442030114000000D0
S315080044C000000000080003045442010188000000AF
S315080044D030430F010000000000000000002000002B
S315080044E000000000000000000000000000000000BE
S315080044F000000000000000000000000000000000AE
S315080045000000003800000000000000000000FF580E
S31508004510108001010300000038800201522B1000B0
S31508004520030000009C8003010000000070B803002F
S31508004530B00F0000A8800111F6010000A880013123
S3150800454001420101AC800111F6010000AC80013185
S315080045500100AF03B080020100030002370000012A
S315080045609800030200000000000C00044C04000040
S31508004570D8000202050040AA88010000EC000112DA
S31508004580E00F0000EC0001320D205151F00001024D
S315080045902B050000000101021001000004010112B0
S315080045A00000000004010132100100001001011290
S315080045B000FF0F0010010132020000422C01011217
S315080045C000FC1F002C010132A900800040010102F5
S315080045D03F0000005001011200C0000050010132E6
S315080045E06300510068010202000006000020010075
S315080045F07401010269811B0C7801011200001C007C
S31508004600780101324004E0CF8001011279070000E9
S3150800461080010132020000008801020250000000F9
S3150800462000000000AC010112F8010000AC010132E3
S3150800463004020100B0010102000000004060080306
S3150800464000000008001000010020200000020800F9
S315080046500040010040000200000480001000040031
S31508004660FC7F010370180008FFFFFFFF0C400200E3
S315080046700CB11100004800002040020000000000B4
S315080046800000000030400700250800000001000077
S31508004690FF000000410301004060000000600000C8
S315080046A0A0070000504001000B0000005C4002001B
S315080046B00F0D000001010000A840010007000000DE
S315080046C0BC400400000000000000000000000000DC
S315080046D0000000000841040001400000FF0C000033
S315080046E001410000FF0D000020C0011000F807007E
S315080046F020C00130FE01280024C00110FF00000080
S3150800470024C001300013000028C00800EC80B30361
S3150800471043754051A00F00B830400000A8AA070012
S3150800472000000000000000000000000054C0140053
S315080047308721300085007CE68F0100004964717886
S315080047407C00000088C60200A0040000BA10000021
S3150800475000003F008D00EE00F601AC03F504960755
S31508004760DE099C0DC3119317FE1DF526BD32FF3FCA
S31508004770FE15F81BDC23B42DD039FF3FFF3F0000A0
S31508004780A8C00500BD4B721511A318051032547642
S31508004790980A000000000000CCC00400FE010000DA
S315080047A00000000001000A000100280008000101BD
S315080047B00E17000018000101FFFFFFFF200001018E
S315080047C02083B8ED4040260100005021000000007B
S315080047D010000000000000042FC282000000002024
S315080047E00000000000000003000000200000000098
S315080047F0BD60FE00400C00004A00000012002000C8
S315080048000972000009720000430F00000000000052
S3150800481090032B0000000662000000000000000A5A
S315080048204A54545400000000000000000000000034
S31508004830000000000000000000000000000000006A
S31508004840000000000000000000000000000000005A
S31508004850000000000000000000000000000000004A
S31508004860E0400111F8010000E040013101020000BA
S3150800487010410201331E0500000000001C410E0114
S315080048800000808E00000000FF0483078813C83AE2
S31508004890FF06660CFF0483078813FF03BC200AF093
S315080048A0507B50000375B14000004E90B7D7E941E0
S315080048B08B3B4000C0030080584102010000000005
S315080048C0FFFD0000644101010C0100006C410B0171
S315080048D0000000400000000000000000000000008A
S315080048E000000000000000000101000000000000B8
S315080048F0000000000000000000000000A4410201C2
S315080049000000000000000000B0410C01000000009B
S3150800491068D52FC0000000000000000000003C0021
S31508004920AAAA0600000000000000000055555555CB
S31508004930E781BB800600020000000000E441150183
S31508004940E6E7FF0BCDA10A00BD066A005EB04D0082
S315080049507D02420EA5B62202FF25B2341DACF10E29
S3150800496074390C00B080760089DCB300933C64008F
S31508004970C689C7048F1A651D000000800000000064
S315080049805800000000000000601800400000000009
S31508004990000000003C4201010000000044420301FF
S315080049A0140000000000000008000504544201013C
S315080049B08D00000030430F010000000000000000D9
S315080049C000200000000000000000000000000000B9
S315080049D000000000000000000000000000000000C9
S315080049E00000000000000038000000000000000081
S315080049F00000FF5810800101030000003880020102
S31508004A001F171000030000009C800301000000002F
S31508004A1070B8030070B80300A8800111F601000001
S31508004A20A880013101420101AC800111F6010000A4
S31508004A30AC80013101420101B0800201000300028D
S31508004A40000300029800030200000000000C0004A6
S31508004A504C040000D8000202050040AA88010000A4
S31508004A60EC000112E00F0000EC0001320D2051515C
S31508004A70F00001022B0500000001010210010000F0
S31508004A8004010112000000000401013210010000B7
S31508004A901001011200FF0F0010010132020000424E
S31508004AA02C01011200FC1F002C010132A900800014
S31508004AB0400101023F0000005001011200C0000041
S31508004AC0500101326200510068010202000006002E
S31508004AD000200600740101026901100C7801011218
S31508004AE000001C00780101324004E0CF8001011269
S31508004AF079070000800101320600000088010202E1
S31508004B009000000000000000AC010112F80100004E
S31508004B10AC01013204020100B001010200000000EC
S31508004B204060080300000008001000010020200073
S31508004B300002080000400100400002000004800056
S31508004B4010000400FC7F0103101E0008FFFFFFFF92
S31508004B500C4002000CB11100004800002040020081
S31508004B600000000000000000304007002508000093
S31508004B7000010000FF000000410301004060000042
S31508004B8000600000A0070000504001000B00000074
S31508004B905C4002000F0D000001010000A840010062
S31508004BA007000000BC4004000000000000000000F0
S31508004BB00000000000000000084104000140000059
S31508004BC0FF0C000001410000FF0D000020C001108D
S31508004BD000F8070020C00130FE01280024C001109B
S31508004BE0FF00000024C001300013000028C00800A0
S31508004BF0EC80B30343754051A00F00B83040000065
S31508004C00A8AA07000000000000000000000000003D
S31508004C1054C014008721300085007CE68F0100000F
S31508004C20496471787C00000088C60200A004000070
S31508004C30BA10000000003F008D00EE00F601AC033C
S31508004C40F5049607DE099C0DC3119317FE1DF5267C
S31508004C50BD32FF3FFE15F81BDC23B42DD039FF3FCC
S31508004C60FF3F0000A8C00500BD4B721511A318052B
S31508004C7010325476980A000000000000CCC00400E8
S31508004C80FE0100000000000001000A0001002800E3
S31508004C90080001010E17000018000101FFFFFFFFC1
S31508004CA0200001012083B8ED404026010000502174
S31508004CB00000000010000000000000042FC282005F
S31508004CC00000002000000000000000030000002093
S31508004CD000000000FD2FFC00400800004A0000000C
S31508004CE01200200009720000097200003C0F000043
S31508004CF00000000090031A00000007620000000090
S31508004D000000000A4A545454000000000000000045
S31508004D100000000000000000000000000000000085
S31508004D200000000000000000000000000000000075
S31508004D300000000000000000000000000000000065
S31508004D4000000000E0400111F8010000E0400131D8
S31508004D500102000010410201331E05000000000098
S31508004D601C410E010000E08C00000000FF048307D0
S31508004D708813C83AFF06660CFF0483078813FF03E7
S31508004D80BC200AF0507B50000167A94000004E90F5
S31508004D90B1F548418B3B4000C003008058410201F1
S31508004DA000000000FFFD0000644101010C01000045
S31508004DB06C410B01000000400000000000000000EC
S31508004DC000000000000000000000000001010000D3
S31508004DD000000000000000000000000000000000C5
S31508004DE0A44102010000000000000000B0410C01CF
S31508004DF00000000068D52FC0000000000000000079
S31508004E0000003C00AAAA06000000000000000000FE
S31508004E1055555555E780BB80040002000000000088
S31508004E20E4411501E6E7FF0BCDA10A00BD066A00BD
S31508004E305EB04D007D02420EA5B62202FF25B234B1
S31508004E40FFAB000A5CF10F00D341020095EDB100FB
S31508004E50197BD80F1208B904EA1B6D1F00000080E1
S31508004E600000000058000000000000006018004024
S31508004E7000000000000000003C42010100000000A4
S31508004E804442030114000000000000000800030467
S31508004E90544201018D00000030430F01000000005C
S31508004EA000000000002000000000000000000000D4
S31508004EB000000000000000000000000000000000E4
S31508004EC0000000000000000000000038000000009C
S31508004ED0000000000000FF581080010103000000D8
S31508004EE0388002011F171000030000009C80030190
S31508004EF00000000070B8030070B80300A880011114
S31508004F00F6010000A880013101420101AC800111BF
S31508004F10F6010000AC80013101420101B0800201B6
S31508004F2000030002000300029800030200000000CC
S31508004F30000C00044C040000D8000202050040AA38
S31508004F4088010000EC000112E00F0000EC000132BD
S31508004F500D205151F00001022B050000000101024D
S31508004F6010010000040101120000000004010132D2
S31508004F70100100001001011200FF0F00100101329C
S31508004F80020000422C01011200FC1F002C01013214
S31508004F90A9008000400101023F00000050010112F3
S31508004FA000C000005001013262005100680102028F
S31508004FB00000060000200600740101026901100CB9
S31508004FC07801011200001C00780101324004E0CF8C
S31508004FD080010112790700008001013206000000F5
S31508004FE0880102029000000000000000AC010112D6
S31508004FF0F8010000AC01013204020100B00101020F
S3150800500000000000406008030000000800100001CE
S3150800501000202000000208000040010040000200B5
S315080050200004800010000400FC7F0103601E0008D5
S31508005030FFFFFFFF0C4002000CB111000048000002
S315080050402040020000000000000000003040070079
S315080050502508000000010000FF00000041030100D0
S315080050604060000000600000A007000050400100FA
S315080050700B0000005C4002000F0D0000010100005B
S31508005080A840010007000000BC4004000000000022
S3150800509000000000000000000000000008410400B5
S315080050A001400000FF0C000001410000FF0D000058
S315080050B020C0011000F8070020C00130FE012800BA
S315080050C024C00110FF00000024C0013000130000B6
S315080050D028C00800EC80B30343754051A00F00B800
S315080050E030400000A8AA07000000000000000000E9
S315080050F00000000054C01400872130006E0066E6E8
S315080051004A0100003D535E636600000088C602003F
S31508005110A0040000BA10000000003F008D00EE0059
S31508005120F601AC03F5049607DE099C0DC311931727
S31508005130FE1DF526BD32FF3FFE15F81BDC23B42DF8
S31508005140D039FF3FFF3F0000A8C00500BD4B7215D0
S3150800515011A3180510325476980A000000000000C2
S31508005160CCC00400EE0000000000000001000A00A8
S3150800517001002800080001010E17000018000101AF
S31508005180FFFFFFFF200001012083B8ED4040260104
S31508005190000070210000000010000000000000045C
S315080051A02FC282000000000000000000000000037B
S315080051B000000020000000003F20FE00400800001C
S315080051C04800000012003000097200000972000051
S315080051D0501F000000000000B2030800000006622D
S315080051E0000000000000000A4A5454540000000061
S315080051F000000000000000000000000000000000A1
S315080052000000000000000000000000000000000090
S315080052100000000000000000000000000000000080
S315080052200000000000000000E0400111F801000045
S31508005230E04001310102000010410201331E050061
S31508005240000000001C410E010050558C00000000B3
S31508005250FF0483078813C83AFF06660CFF04830712
S315080052608813FF03BC200AF0646F50000169A74049
S3150800527000004E90ADAA48418B3B4000C003008019
S315080052805841020100000000FFFD000064410101D1
S315080052900C0100006C410B010000004000000000FA
S315080052A000000000000000000000000000000000F0
S315080052B001010000000000000000000000000000DE
S315080052C000000000A44102010000000000000000E8
S315080052D0B0410C010000000068D52FC00000000096
S315080052E00000000000003C00AAAA0600000000001A
S315080052F00000000055555555E780BB8004000200A4
S3150800530000000000E4411501F907E111CCE90500A8
S31508005310328E6C0032B14E0082011C0E74F76502A3
S315080053209B255033EA6B8F00B3000E00773A0E00C8
S315080053302FBFBB0015BA4C0F2206A704981DF921EA
S315080053400000008000000000780000000000000057
S315080053506018004000000000000000003C42010107
S315080053600000000044420301140000000000000091
S3150800537008000304544201018D00000030430F0168
S3150800538000000000000000000020000000000000EF
S3150800539000000000000000000000000000000000FF
S315080053A000000000000000000000000000000038B7
S315080053B000000000000000000000FF5810800101F6
S315080053C00300000038800201D91B1000030000000A
S315080053D09C8003010000000070B8030070B8030049
S315080053E0A8800111F6010000A880013101420101DF
S315080053F0AC800111F6010000AC80013101420101C7
S31508005400B0800201000300020003000298000302B4
S3150800541000000000000C00044C040000D800020242
S31508005420050040AA88010000EC000112E00F000008
S31508005430EC0001320D205151F00001022B0500004D
S315080054400001010210010000040101120000000021
S3150800545004010132100100001001011200FF0F00C3
S3150800546010010132020000422C01011200FC1F004B
S315080054702C010132A9008000400101023F00000012
S315080054805001011200C000005001013263005100B2
S3150800549068010202000006000020060074010102ED
S315080054A06901100C7801011200001C007801013214
S315080054B04004E0CF80010112790700008001013223
S315080054C006000000880102029000000000000000AB
S315080054D0AC010112F8010000AC010132040201001E
S315080054E0B001010200000000406008030000000847
S315080054F00010000100202000000208000040010002
